{"abi":[{"inputs":[{"internalType":"uint256","name":"minimum","type":"uint256"}],"name":"createCampaign","outputs":[],"stateMutability":"nonpayable","type":"function"},{"inputs":[{"internalType":"uint256","name":"","type":"uint256"}],"name":"deployedCampains","outputs":[{"internalType":"address","name":"","type":"address"}],"stateMutability":"view","type":"function"},{"inputs":[],"name":"getDeployedCampaigns","outputs":[{"internalType":"address[]","name":"","type":"address[]"}],"stateMutability":"view","type":"function"}],"devdoc":{"kind":"dev","methods":{},"version":1},"evm":{"assembly":"    /* \"Campaign.sol\":58:565  contract CampaignFactory {... */\n  mstore(0x40, 0x80)\n  callvalue\n  dup1\n  iszero\n  tag_1\n  jumpi\n  0x00\n  dup1\n  revert\ntag_1:\n  pop\n  dataSize(sub_0)\n  dup1\n  dataOffset(sub_0)\n  0x00\n  codecopy\n  0x00\n  return\nstop\n\nsub_0: assembly {\n        /* \"Campaign.sol\":58:565  contract CampaignFactory {... */\n      mstore(0x40, 0x80)\n      callvalue\n      dup1\n      iszero\n      tag_1\n      jumpi\n      0x00\n      dup1\n      revert\n    tag_1:\n      pop\n      jumpi(tag_2, lt(calldatasize, 0x04))\n      shr(0xe0, calldataload(0x00))\n      dup1\n      0x4acb9d4f\n      eq\n      tag_3\n      jumpi\n      dup1\n      0x4af9edfe\n      eq\n      tag_4\n      jumpi\n      dup1\n      0xa3303a75\n      eq\n      tag_5\n      jumpi\n    tag_2:\n      0x00\n      dup1\n      revert\n        /* \"Campaign.sol\":454:563  function getDeployedCampaigns() public view returns(address[] memory){... */\n    tag_3:\n      tag_6\n      tag_7\n      jump\t// in\n    tag_6:\n      mload(0x40)\n      tag_8\n      swap2\n      swap1\n      tag_9\n      jump\t// in\n    tag_8:\n      mload(0x40)\n      dup1\n      swap2\n      sub\n      swap1\n      return\n        /* \"Campaign.sol\":89:122  address[] public deployedCampains */\n    tag_4:\n      tag_10\n      0x04\n      dup1\n      calldatasize\n      sub\n      dup2\n      add\n      swap1\n      tag_11\n      swap2\n      swap1\n      tag_12\n      jump\t// in\n    tag_11:\n      tag_13\n      jump\t// in\n    tag_10:\n      mload(0x40)\n      tag_14\n      swap2\n      swap1\n      tag_15\n      jump\t// in\n    tag_14:\n      mload(0x40)\n      dup1\n      swap2\n      sub\n      swap1\n      return\n        /* \"Campaign.sol\":133:448  function createCampaign(uint minimum) public {... */\n    tag_5:\n      tag_16\n      0x04\n      dup1\n      calldatasize\n      sub\n      dup2\n      add\n      swap1\n      tag_17\n      swap2\n      swap1\n      tag_12\n      jump\t// in\n    tag_17:\n      tag_18\n      jump\t// in\n    tag_16:\n      stop\n        /* \"Campaign.sol\":454:563  function getDeployedCampaigns() public view returns(address[] memory){... */\n    tag_7:\n        /* \"Campaign.sol\":506:522  address[] memory */\n      0x60\n        /* \"Campaign.sol\":540:556  deployedCampains */\n      0x00\n        /* \"Campaign.sol\":533:556  return deployedCampains */\n      dup1\n      sload\n      dup1\n      0x20\n      mul\n      0x20\n      add\n      mload(0x40)\n      swap1\n      dup2\n      add\n      0x40\n      mstore\n      dup1\n      swap3\n      swap2\n      swap1\n      dup2\n      dup2\n      mstore\n      0x20\n      add\n      dup3\n      dup1\n      sload\n      dup1\n      iszero\n      tag_20\n      jumpi\n      0x20\n      mul\n      dup3\n      add\n      swap2\n      swap1\n      0x00\n      mstore\n      keccak256(0x00, 0x20)\n      swap1\n    tag_21:\n      dup2\n      0x00\n      swap1\n      sload\n      swap1\n      0x0100\n      exp\n      swap1\n      div\n      0xffffffffffffffffffffffffffffffffffffffff\n      and\n      0xffffffffffffffffffffffffffffffffffffffff\n      and\n      dup2\n      mstore\n      0x20\n      add\n      swap1\n      0x01\n      add\n      swap1\n      dup1\n      dup4\n      gt\n      tag_21\n      jumpi\n    tag_20:\n      pop\n      pop\n      pop\n      pop\n      pop\n      swap1\n      pop\n        /* \"Campaign.sol\":454:563  function getDeployedCampaigns() public view returns(address[] memory){... */\n      swap1\n      jump\t// out\n        /* \"Campaign.sol\":89:122  address[] public deployedCampains */\n    tag_13:\n      0x00\n      dup2\n      dup2\n      sload\n      dup2\n      lt\n      tag_22\n      jumpi\n      0x00\n      dup1\n      revert\n    tag_22:\n      swap1\n      0x00\n      mstore\n      keccak256(0x00, 0x20)\n      add\n      0x00\n      swap2\n      pop\n      sload\n      swap1\n      0x0100\n      exp\n      swap1\n      div\n      0xffffffffffffffffffffffffffffffffffffffff\n      and\n      dup2\n      jump\t// out\n        /* \"Campaign.sol\":133:448  function createCampaign(uint minimum) public {... */\n    tag_18:\n        /* \"Campaign.sol\":375:391  deployedCampains */\n      0x00\n        /* \"Campaign.sol\":418:425  minimum */\n      dup2\n        /* \"Campaign.sol\":428:438  msg.sender */\n      caller\n        /* \"Campaign.sol\":405:439  new Campaign(minimum , msg.sender) */\n      mload(0x40)\n      tag_25\n      swap1\n      tag_26\n      jump\t// in\n    tag_25:\n      tag_27\n      swap3\n      swap2\n      swap1\n      tag_28\n      jump\t// in\n    tag_27:\n      mload(0x40)\n      dup1\n      swap2\n      sub\n      swap1\n      0x00\n      create\n      dup1\n      iszero\n      dup1\n      iszero\n      tag_29\n      jumpi\n      returndatasize\n      0x00\n      dup1\n      returndatacopy\n      revert(0x00, returndatasize)\n    tag_29:\n      pop\n        /* \"Campaign.sol\":375:441  deployedCampains.push(address(new Campaign(minimum , msg.sender))) */\n      swap1\n      dup1\n      0x01\n      dup2\n      sload\n      add\n      dup1\n      dup3\n      sstore\n      dup1\n      swap2\n      pop\n      pop\n      0x01\n      swap1\n      sub\n      swap1\n      0x00\n      mstore\n      keccak256(0x00, 0x20)\n      add\n      0x00\n      swap1\n      swap2\n      swap1\n      swap2\n      swap1\n      swap2\n      0x0100\n      exp\n      dup2\n      sload\n      dup2\n      0xffffffffffffffffffffffffffffffffffffffff\n      mul\n      not\n      and\n      swap1\n      dup4\n      0xffffffffffffffffffffffffffffffffffffffff\n      and\n      mul\n      or\n      swap1\n      sstore\n      pop\n        /* \"Campaign.sol\":133:448  function createCampaign(uint minimum) public {... */\n      pop\n      jump\t// out\n    tag_26:\n      dataSize(sub_0)\n      dup1\n      dataOffset(sub_0)\n      dup4\n      codecopy\n      add\n      swap1\n      jump\t// out\n        /* \"#utility.yul\":7:121   */\n    tag_31:\n        /* \"#utility.yul\":74:80   */\n      0x00\n        /* \"#utility.yul\":108:113   */\n      dup2\n        /* \"#utility.yul\":102:114   */\n      mload\n        /* \"#utility.yul\":92:114   */\n      swap1\n      pop\n        /* \"#utility.yul\":7:121   */\n      swap2\n      swap1\n      pop\n      jump\t// out\n        /* \"#utility.yul\":127:311   */\n    tag_32:\n        /* \"#utility.yul\":226:237   */\n      0x00\n        /* \"#utility.yul\":260:266   */\n      dup3\n        /* \"#utility.yul\":255:258   */\n      dup3\n        /* \"#utility.yul\":248:267   */\n      mstore\n        /* \"#utility.yul\":300:304   */\n      0x20\n        /* \"#utility.yul\":295:298   */\n      dup3\n        /* \"#utility.yul\":291:305   */\n      add\n        /* \"#utility.yul\":276:305   */\n      swap1\n      pop\n        /* \"#utility.yul\":127:311   */\n      swap3\n      swap2\n      pop\n      pop\n      jump\t// out\n        /* \"#utility.yul\":317:449   */\n    tag_33:\n        /* \"#utility.yul\":384:388   */\n      0x00\n        /* \"#utility.yul\":407:410   */\n      dup2\n        /* \"#utility.yul\":399:410   */\n      swap1\n      pop\n        /* \"#utility.yul\":437:441   */\n      0x20\n        /* \"#utility.yul\":432:435   */\n      dup3\n        /* \"#utility.yul\":428:442   */\n      add\n        /* \"#utility.yul\":420:442   */\n      swap1\n      pop\n        /* \"#utility.yul\":317:449   */\n      swap2\n      swap1\n      pop\n      jump\t// out\n        /* \"#utility.yul\":455:581   */\n    tag_34:\n        /* \"#utility.yul\":492:499   */\n      0x00\n        /* \"#utility.yul\":532:574   */\n      0xffffffffffffffffffffffffffffffffffffffff\n        /* \"#utility.yul\":525:530   */\n      dup3\n        /* \"#utility.yul\":521:575   */\n      and\n        /* \"#utility.yul\":510:575   */\n      swap1\n      pop\n        /* \"#utility.yul\":455:581   */\n      swap2\n      swap1\n      pop\n      jump\t// out\n        /* \"#utility.yul\":587:683   */\n    tag_35:\n        /* \"#utility.yul\":624:631   */\n      0x00\n        /* \"#utility.yul\":653:677   */\n      tag_54\n        /* \"#utility.yul\":671:676   */\n      dup3\n        /* \"#utility.yul\":653:677   */\n      tag_34\n      jump\t// in\n    tag_54:\n        /* \"#utility.yul\":642:677   */\n      swap1\n      pop\n        /* \"#utility.yul\":587:683   */\n      swap2\n      swap1\n      pop\n      jump\t// out\n        /* \"#utility.yul\":689:797   */\n    tag_36:\n        /* \"#utility.yul\":766:790   */\n      tag_56\n        /* \"#utility.yul\":784:789   */\n      dup2\n        /* \"#utility.yul\":766:790   */\n      tag_35\n      jump\t// in\n    tag_56:\n        /* \"#utility.yul\":761:764   */\n      dup3\n        /* \"#utility.yul\":754:791   */\n      mstore\n        /* \"#utility.yul\":689:797   */\n      pop\n      pop\n      jump\t// out\n        /* \"#utility.yul\":803:982   */\n    tag_37:\n        /* \"#utility.yul\":872:882   */\n      0x00\n        /* \"#utility.yul\":893:939   */\n      tag_58\n        /* \"#utility.yul\":935:938   */\n      dup4\n        /* \"#utility.yul\":927:933   */\n      dup4\n        /* \"#utility.yul\":893:939   */\n      tag_36\n      jump\t// in\n    tag_58:\n        /* \"#utility.yul\":971:975   */\n      0x20\n        /* \"#utility.yul\":966:969   */\n      dup4\n        /* \"#utility.yul\":962:976   */\n      add\n        /* \"#utility.yul\":948:976   */\n      swap1\n      pop\n        /* \"#utility.yul\":803:982   */\n      swap3\n      swap2\n      pop\n      pop\n      jump\t// out\n        /* \"#utility.yul\":988:1101   */\n    tag_38:\n        /* \"#utility.yul\":1058:1062   */\n      0x00\n        /* \"#utility.yul\":1090:1094   */\n      0x20\n        /* \"#utility.yul\":1085:1088   */\n      dup3\n        /* \"#utility.yul\":1081:1095   */\n      add\n        /* \"#utility.yul\":1073:1095   */\n      swap1\n      pop\n        /* \"#utility.yul\":988:1101   */\n      swap2\n      swap1\n      pop\n      jump\t// out\n        /* \"#utility.yul\":1137:1869   */\n    tag_39:\n        /* \"#utility.yul\":1256:1259   */\n      0x00\n        /* \"#utility.yul\":1285:1339   */\n      tag_61\n        /* \"#utility.yul\":1333:1338   */\n      dup3\n        /* \"#utility.yul\":1285:1339   */\n      tag_31\n      jump\t// in\n    tag_61:\n        /* \"#utility.yul\":1355:1441   */\n      tag_62\n        /* \"#utility.yul\":1434:1440   */\n      dup2\n        /* \"#utility.yul\":1429:1432   */\n      dup6\n        /* \"#utility.yul\":1355:1441   */\n      tag_32\n      jump\t// in\n    tag_62:\n        /* \"#utility.yul\":1348:1441   */\n      swap4\n      pop\n        /* \"#utility.yul\":1465:1521   */\n      tag_63\n        /* \"#utility.yul\":1515:1520   */\n      dup4\n        /* \"#utility.yul\":1465:1521   */\n      tag_33\n      jump\t// in\n    tag_63:\n        /* \"#utility.yul\":1544:1551   */\n      dup1\n        /* \"#utility.yul\":1575:1576   */\n      0x00\n        /* \"#utility.yul\":1560:1844   */\n    tag_64:\n        /* \"#utility.yul\":1585:1591   */\n      dup4\n        /* \"#utility.yul\":1582:1583   */\n      dup2\n        /* \"#utility.yul\":1579:1592   */\n      lt\n        /* \"#utility.yul\":1560:1844   */\n      iszero\n      tag_66\n      jumpi\n        /* \"#utility.yul\":1661:1667   */\n      dup2\n        /* \"#utility.yul\":1655:1668   */\n      mload\n        /* \"#utility.yul\":1688:1751   */\n      tag_67\n        /* \"#utility.yul\":1747:1750   */\n      dup9\n        /* \"#utility.yul\":1732:1745   */\n      dup3\n        /* \"#utility.yul\":1688:1751   */\n      tag_37\n      jump\t// in\n    tag_67:\n        /* \"#utility.yul\":1681:1751   */\n      swap8\n      pop\n        /* \"#utility.yul\":1774:1834   */\n      tag_68\n        /* \"#utility.yul\":1827:1833   */\n      dup4\n        /* \"#utility.yul\":1774:1834   */\n      tag_38\n      jump\t// in\n    tag_68:\n        /* \"#utility.yul\":1764:1834   */\n      swap3\n      pop\n        /* \"#utility.yul\":1620:1844   */\n      pop\n        /* \"#utility.yul\":1607:1608   */\n      0x01\n        /* \"#utility.yul\":1604:1605   */\n      dup2\n        /* \"#utility.yul\":1600:1609   */\n      add\n        /* \"#utility.yul\":1595:1609   */\n      swap1\n      pop\n        /* \"#utility.yul\":1560:1844   */\n      jump(tag_64)\n    tag_66:\n        /* \"#utility.yul\":1564:1578   */\n      pop\n        /* \"#utility.yul\":1860:1863   */\n      dup6\n        /* \"#utility.yul\":1853:1863   */\n      swap4\n      pop\n        /* \"#utility.yul\":1261:1869   */\n      pop\n      pop\n      pop\n        /* \"#utility.yul\":1137:1869   */\n      swap3\n      swap2\n      pop\n      pop\n      jump\t// out\n        /* \"#utility.yul\":1875:2248   */\n    tag_9:\n        /* \"#utility.yul\":2018:2022   */\n      0x00\n        /* \"#utility.yul\":2056:2058   */\n      0x20\n        /* \"#utility.yul\":2045:2054   */\n      dup3\n        /* \"#utility.yul\":2041:2059   */\n      add\n        /* \"#utility.yul\":2033:2059   */\n      swap1\n      pop\n        /* \"#utility.yul\":2105:2114   */\n      dup2\n        /* \"#utility.yul\":2099:2103   */\n      dup2\n        /* \"#utility.yul\":2095:2115   */\n      sub\n        /* \"#utility.yul\":2091:2092   */\n      0x00\n        /* \"#utility.yul\":2080:2089   */\n      dup4\n        /* \"#utility.yul\":2076:2093   */\n      add\n        /* \"#utility.yul\":2069:2116   */\n      mstore\n        /* \"#utility.yul\":2133:2241   */\n      tag_70\n        /* \"#utility.yul\":2236:2240   */\n      dup2\n        /* \"#utility.yul\":2227:2233   */\n      dup5\n        /* \"#utility.yul\":2133:2241   */\n      tag_39\n      jump\t// in\n    tag_70:\n        /* \"#utility.yul\":2125:2241   */\n      swap1\n      pop\n        /* \"#utility.yul\":1875:2248   */\n      swap3\n      swap2\n      pop\n      pop\n      jump\t// out\n        /* \"#utility.yul\":2335:2452   */\n    tag_41:\n        /* \"#utility.yul\":2444:2445   */\n      0x00\n        /* \"#utility.yul\":2441:2442   */\n      dup1\n        /* \"#utility.yul\":2434:2446   */\n      revert\n        /* \"#utility.yul\":2581:2658   */\n    tag_43:\n        /* \"#utility.yul\":2618:2625   */\n      0x00\n        /* \"#utility.yul\":2647:2652   */\n      dup2\n        /* \"#utility.yul\":2636:2652   */\n      swap1\n      pop\n        /* \"#utility.yul\":2581:2658   */\n      swap2\n      swap1\n      pop\n      jump\t// out\n        /* \"#utility.yul\":2664:2786   */\n    tag_44:\n        /* \"#utility.yul\":2737:2761   */\n      tag_76\n        /* \"#utility.yul\":2755:2760   */\n      dup2\n        /* \"#utility.yul\":2737:2761   */\n      tag_43\n      jump\t// in\n    tag_76:\n        /* \"#utility.yul\":2730:2735   */\n      dup2\n        /* \"#utility.yul\":2727:2762   */\n      eq\n        /* \"#utility.yul\":2717:2780   */\n      tag_77\n      jumpi\n        /* \"#utility.yul\":2776:2777   */\n      0x00\n        /* \"#utility.yul\":2773:2774   */\n      dup1\n        /* \"#utility.yul\":2766:2778   */\n      revert\n        /* \"#utility.yul\":2717:2780   */\n    tag_77:\n        /* \"#utility.yul\":2664:2786   */\n      pop\n      jump\t// out\n        /* \"#utility.yul\":2792:2931   */\n    tag_45:\n        /* \"#utility.yul\":2838:2843   */\n      0x00\n        /* \"#utility.yul\":2876:2882   */\n      dup2\n        /* \"#utility.yul\":2863:2883   */\n      calldataload\n        /* \"#utility.yul\":2854:2883   */\n      swap1\n      pop\n        /* \"#utility.yul\":2892:2925   */\n      tag_79\n        /* \"#utility.yul\":2919:2924   */\n      dup2\n        /* \"#utility.yul\":2892:2925   */\n      tag_44\n      jump\t// in\n    tag_79:\n        /* \"#utility.yul\":2792:2931   */\n      swap3\n      swap2\n      pop\n      pop\n      jump\t// out\n        /* \"#utility.yul\":2937:3266   */\n    tag_12:\n        /* \"#utility.yul\":2996:3002   */\n      0x00\n        /* \"#utility.yul\":3045:3047   */\n      0x20\n        /* \"#utility.yul\":3033:3042   */\n      dup3\n        /* \"#utility.yul\":3024:3031   */\n      dup5\n        /* \"#utility.yul\":3020:3043   */\n      sub\n        /* \"#utility.yul\":3016:3048   */\n      slt\n        /* \"#utility.yul\":3013:3132   */\n      iszero\n      tag_81\n      jumpi\n        /* \"#utility.yul\":3051:3130   */\n      tag_82\n      tag_41\n      jump\t// in\n    tag_82:\n        /* \"#utility.yul\":3013:3132   */\n    tag_81:\n        /* \"#utility.yul\":3171:3172   */\n      0x00\n        /* \"#utility.yul\":3196:3249   */\n      tag_83\n        /* \"#utility.yul\":3241:3248   */\n      dup5\n        /* \"#utility.yul\":3232:3238   */\n      dup3\n        /* \"#utility.yul\":3221:3230   */\n      dup6\n        /* \"#utility.yul\":3217:3239   */\n      add\n        /* \"#utility.yul\":3196:3249   */\n      tag_45\n      jump\t// in\n    tag_83:\n        /* \"#utility.yul\":3186:3249   */\n      swap2\n      pop\n        /* \"#utility.yul\":3142:3259   */\n      pop\n        /* \"#utility.yul\":2937:3266   */\n      swap3\n      swap2\n      pop\n      pop\n      jump\t// out\n        /* \"#utility.yul\":3272:3390   */\n    tag_46:\n        /* \"#utility.yul\":3359:3383   */\n      tag_85\n        /* \"#utility.yul\":3377:3382   */\n      dup2\n        /* \"#utility.yul\":3359:3383   */\n      tag_35\n      jump\t// in\n    tag_85:\n        /* \"#utility.yul\":3354:3357   */\n      dup3\n        /* \"#utility.yul\":3347:3384   */\n      mstore\n        /* \"#utility.yul\":3272:3390   */\n      pop\n      pop\n      jump\t// out\n        /* \"#utility.yul\":3396:3618   */\n    tag_15:\n        /* \"#utility.yul\":3489:3493   */\n      0x00\n        /* \"#utility.yul\":3527:3529   */\n      0x20\n        /* \"#utility.yul\":3516:3525   */\n      dup3\n        /* \"#utility.yul\":3512:3530   */\n      add\n        /* \"#utility.yul\":3504:3530   */\n      swap1\n      pop\n        /* \"#utility.yul\":3540:3611   */\n      tag_87\n        /* \"#utility.yul\":3608:3609   */\n      0x00\n        /* \"#utility.yul\":3597:3606   */\n      dup4\n        /* \"#utility.yul\":3593:3610   */\n      add\n        /* \"#utility.yul\":3584:3590   */\n      dup5\n        /* \"#utility.yul\":3540:3611   */\n      tag_46\n      jump\t// in\n    tag_87:\n        /* \"#utility.yul\":3396:3618   */\n      swap3\n      swap2\n      pop\n      pop\n      jump\t// out\n        /* \"#utility.yul\":3624:3742   */\n    tag_47:\n        /* \"#utility.yul\":3711:3735   */\n      tag_89\n        /* \"#utility.yul\":3729:3734   */\n      dup2\n        /* \"#utility.yul\":3711:3735   */\n      tag_43\n      jump\t// in\n    tag_89:\n        /* \"#utility.yul\":3706:3709   */\n      dup3\n        /* \"#utility.yul\":3699:3736   */\n      mstore\n        /* \"#utility.yul\":3624:3742   */\n      pop\n      pop\n      jump\t// out\n        /* \"#utility.yul\":3748:4080   */\n    tag_28:\n        /* \"#utility.yul\":3869:3873   */\n      0x00\n        /* \"#utility.yul\":3907:3909   */\n      0x40\n        /* \"#utility.yul\":3896:3905   */\n      dup3\n        /* \"#utility.yul\":3892:3910   */\n      add\n        /* \"#utility.yul\":3884:3910   */\n      swap1\n      pop\n        /* \"#utility.yul\":3920:3991   */\n      tag_91\n        /* \"#utility.yul\":3988:3989   */\n      0x00\n        /* \"#utility.yul\":3977:3986   */\n      dup4\n        /* \"#utility.yul\":3973:3990   */\n      add\n        /* \"#utility.yul\":3964:3970   */\n      dup6\n        /* \"#utility.yul\":3920:3991   */\n      tag_47\n      jump\t// in\n    tag_91:\n        /* \"#utility.yul\":4001:4073   */\n      tag_92\n        /* \"#utility.yul\":4069:4071   */\n      0x20\n        /* \"#utility.yul\":4058:4067   */\n      dup4\n        /* \"#utility.yul\":4054:4072   */\n      add\n        /* \"#utility.yul\":4045:4051   */\n      dup5\n        /* \"#utility.yul\":4001:4073   */\n      tag_46\n      jump\t// in\n    tag_92:\n        /* \"#utility.yul\":3748:4080   */\n      swap4\n      swap3\n      pop\n      pop\n      pop\n      jump\t// out\n    stop\n\n    sub_0: assembly {\n            /* \"Campaign.sol\":567:3251  contract Campaign {... */\n          mstore(0x40, 0x80)\n            /* \"Campaign.sol\":1004:1005  0 */\n          0x00\n            /* \"Campaign.sol\":975:1005  uint public approversCount = 0 */\n          0x04\n          sstore\n            /* \"Campaign.sol\":1042:1043  0 */\n          0x00\n            /* \"Campaign.sol\":1011:1043  uint public totalAmountRised = 0 */\n          0x05\n          sstore\n            /* \"Campaign.sol\":1050:1166  constructor(uint minimum, address creator) {... */\n          callvalue\n          dup1\n          iszero\n          tag_1\n          jumpi\n          0x00\n          dup1\n          revert\n        tag_1:\n          pop\n          mload(0x40)\n          sub(codesize, bytecodeSize)\n          dup1\n          bytecodeSize\n          dup4\n          codecopy\n          dup2\n          dup2\n          add\n          0x40\n          mstore\n          dup2\n          add\n          swap1\n          tag_2\n          swap2\n          swap1\n          tag_3\n          jump\t// in\n        tag_2:\n            /* \"Campaign.sol\":1113:1120  creator */\n          dup1\n            /* \"Campaign.sol\":1103:1110  manager */\n          0x01\n          0x00\n            /* \"Campaign.sol\":1103:1120  manager = creator */\n          0x0100\n          exp\n          dup2\n          sload\n          dup2\n          0xffffffffffffffffffffffffffffffffffffffff\n          mul\n          not\n          and\n          swap1\n          dup4\n          0xffffffffffffffffffffffffffffffffffffffff\n          and\n          mul\n          or\n          swap1\n          sstore\n          pop\n            /* \"Campaign.sol\":1152:1159  minimum */\n          dup2\n            /* \"Campaign.sol\":1130:1149  minimumContribution */\n          0x02\n            /* \"Campaign.sol\":1130:1159  minimumContribution = minimum */\n          dup2\n          swap1\n          sstore\n          pop\n            /* \"Campaign.sol\":1050:1166  constructor(uint minimum, address creator) {... */\n          pop\n          pop\n            /* \"Campaign.sol\":567:3251  contract Campaign {... */\n          jump(tag_6)\n            /* \"#utility.yul\":88:205   */\n        tag_8:\n            /* \"#utility.yul\":197:198   */\n          0x00\n            /* \"#utility.yul\":194:195   */\n          dup1\n            /* \"#utility.yul\":187:199   */\n          revert\n            /* \"#utility.yul\":334:411   */\n        tag_10:\n            /* \"#utility.yul\":371:378   */\n          0x00\n            /* \"#utility.yul\":400:405   */\n          dup2\n            /* \"#utility.yul\":389:405   */\n          swap1\n          pop\n            /* \"#utility.yul\":334:411   */\n          swap2\n          swap1\n          pop\n          jump\t// out\n            /* \"#utility.yul\":417:539   */\n        tag_11:\n            /* \"#utility.yul\":490:514   */\n          tag_23\n            /* \"#utility.yul\":508:513   */\n          dup2\n            /* \"#utility.yul\":490:514   */\n          tag_10\n          jump\t// in\n        tag_23:\n            /* \"#utility.yul\":483:488   */\n          dup2\n            /* \"#utility.yul\":480:515   */\n          eq\n            /* \"#utility.yul\":470:533   */\n          tag_24\n          jumpi\n            /* \"#utility.yul\":529:530   */\n          0x00\n            /* \"#utility.yul\":526:527   */\n          dup1\n            /* \"#utility.yul\":519:531   */\n          revert\n            /* \"#utility.yul\":470:533   */\n        tag_24:\n            /* \"#utility.yul\":417:539   */\n          pop\n          jump\t// out\n            /* \"#utility.yul\":545:688   */\n        tag_12:\n            /* \"#utility.yul\":602:607   */\n          0x00\n            /* \"#utility.yul\":633:639   */\n          dup2\n            /* \"#utility.yul\":627:640   */\n          mload\n            /* \"#utility.yul\":618:640   */\n          swap1\n          pop\n            /* \"#utility.yul\":649:682   */\n          tag_26\n            /* \"#utility.yul\":676:681   */\n          dup2\n            /* \"#utility.yul\":649:682   */\n          tag_11\n          jump\t// in\n        tag_26:\n            /* \"#utility.yul\":545:688   */\n          swap3\n          swap2\n          pop\n          pop\n          jump\t// out\n            /* \"#utility.yul\":694:820   */\n        tag_13:\n            /* \"#utility.yul\":731:738   */\n          0x00\n            /* \"#utility.yul\":771:813   */\n          0xffffffffffffffffffffffffffffffffffffffff\n            /* \"#utility.yul\":764:769   */\n          dup3\n            /* \"#utility.yul\":760:814   */\n          and\n            /* \"#utility.yul\":749:814   */\n          swap1\n          pop\n            /* \"#utility.yul\":694:820   */\n          swap2\n          swap1\n          pop\n          jump\t// out\n            /* \"#utility.yul\":826:922   */\n        tag_14:\n            /* \"#utility.yul\":863:870   */\n          0x00\n            /* \"#utility.yul\":892:916   */\n          tag_29\n            /* \"#utility.yul\":910:915   */\n          dup3\n            /* \"#utility.yul\":892:916   */\n          tag_13\n          jump\t// in\n        tag_29:\n            /* \"#utility.yul\":881:916   */\n          swap1\n          pop\n            /* \"#utility.yul\":826:922   */\n          swap2\n          swap1\n          pop\n          jump\t// out\n            /* \"#utility.yul\":928:1050   */\n        tag_15:\n            /* \"#utility.yul\":1001:1025   */\n          tag_31\n            /* \"#utility.yul\":1019:1024   */\n          dup2\n            /* \"#utility.yul\":1001:1025   */\n          tag_14\n          jump\t// in\n        tag_31:\n            /* \"#utility.yul\":994:999   */\n          dup2\n            /* \"#utility.yul\":991:1026   */\n          eq\n            /* \"#utility.yul\":981:1044   */\n          tag_32\n          jumpi\n            /* \"#utility.yul\":1040:1041   */\n          0x00\n            /* \"#utility.yul\":1037:1038   */\n          dup1\n            /* \"#utility.yul\":1030:1042   */\n          revert\n            /* \"#utility.yul\":981:1044   */\n        tag_32:\n            /* \"#utility.yul\":928:1050   */\n          pop\n          jump\t// out\n            /* \"#utility.yul\":1056:1199   */\n        tag_16:\n            /* \"#utility.yul\":1113:1118   */\n          0x00\n            /* \"#utility.yul\":1144:1150   */\n          dup2\n            /* \"#utility.yul\":1138:1151   */\n          mload\n            /* \"#utility.yul\":1129:1151   */\n          swap1\n          pop\n            /* \"#utility.yul\":1160:1193   */\n          tag_34\n            /* \"#utility.yul\":1187:1192   */\n          dup2\n            /* \"#utility.yul\":1160:1193   */\n          tag_15\n          jump\t// in\n        tag_34:\n            /* \"#utility.yul\":1056:1199   */\n          swap3\n          swap2\n          pop\n          pop\n          jump\t// out\n            /* \"#utility.yul\":1205:1712   */\n        tag_3:\n            /* \"#utility.yul\":1284:1290   */\n          0x00\n            /* \"#utility.yul\":1292:1298   */\n          dup1\n            /* \"#utility.yul\":1341:1343   */\n          0x40\n            /* \"#utility.yul\":1329:1338   */\n          dup4\n            /* \"#utility.yul\":1320:1327   */\n          dup6\n            /* \"#utility.yul\":1316:1339   */\n          sub\n            /* \"#utility.yul\":1312:1344   */\n          slt\n            /* \"#utility.yul\":1309:1428   */\n          iszero\n          tag_36\n          jumpi\n            /* \"#utility.yul\":1347:1426   */\n          tag_37\n          tag_8\n          jump\t// in\n        tag_37:\n            /* \"#utility.yul\":1309:1428   */\n        tag_36:\n            /* \"#utility.yul\":1467:1468   */\n          0x00\n            /* \"#utility.yul\":1492:1556   */\n          tag_38\n            /* \"#utility.yul\":1548:1555   */\n          dup6\n            /* \"#utility.yul\":1539:1545   */\n          dup3\n            /* \"#utility.yul\":1528:1537   */\n          dup7\n            /* \"#utility.yul\":1524:1546   */\n          add\n            /* \"#utility.yul\":1492:1556   */\n          tag_12\n          jump\t// in\n        tag_38:\n            /* \"#utility.yul\":1482:1556   */\n          swap3\n          pop\n            /* \"#utility.yul\":1438:1566   */\n          pop\n            /* \"#utility.yul\":1605:1607   */\n          0x20\n            /* \"#utility.yul\":1631:1695   */\n          tag_39\n            /* \"#utility.yul\":1687:1694   */\n          dup6\n            /* \"#utility.yul\":1678:1684   */\n          dup3\n            /* \"#utility.yul\":1667:1676   */\n          dup7\n            /* \"#utility.yul\":1663:1685   */\n          add\n            /* \"#utility.yul\":1631:1695   */\n          tag_16\n          jump\t// in\n        tag_39:\n            /* \"#utility.yul\":1621:1695   */\n          swap2\n          pop\n            /* \"#utility.yul\":1576:1705   */\n          pop\n            /* \"#utility.yul\":1205:1712   */\n          swap3\n          pop\n          swap3\n          swap1\n          pop\n          jump\t// out\n            /* \"Campaign.sol\":567:3251  contract Campaign {... */\n        tag_6:\n          dataSize(sub_0)\n          dup1\n          dataOffset(sub_0)\n          0x00\n          codecopy\n          0x00\n          return\n        stop\n\n        sub_0: assembly {\n                /* \"Campaign.sol\":567:3251  contract Campaign {... */\n              mstore(0x40, 0x80)\n              jumpi(tag_1, lt(calldatasize, 0x04))\n              shr(0xe0, calldataload(0x00))\n              dup1\n              0x82fde093\n              gt\n              tag_12\n              jumpi\n              dup1\n              0x82fde093\n              eq\n              tag_7\n              jumpi\n              dup1\n              0x8a9cfd55\n              eq\n              tag_8\n              jumpi\n              dup1\n              0x937e09b1\n              eq\n              tag_9\n              jumpi\n              dup1\n              0xd7bb99ba\n              eq\n              tag_10\n              jumpi\n              dup1\n              0xd7d1bbdb\n              eq\n              tag_11\n              jumpi\n              jump(tag_1)\n            tag_12:\n              dup1\n              0x03441006\n              eq\n              tag_2\n              jumpi\n              dup1\n              0x0a144391\n              eq\n              tag_3\n              jumpi\n              dup1\n              0x23da254e\n              eq\n              tag_4\n              jumpi\n              dup1\n              0x481c6a75\n              eq\n              tag_5\n              jumpi\n              dup1\n              0x81d12c58\n              eq\n              tag_6\n              jumpi\n            tag_1:\n              0x00\n              dup1\n              revert\n                /* \"Campaign.sol\":2942:3249  function finalizeRequest(uint index) public restricted {... */\n            tag_2:\n              callvalue\n              dup1\n              iszero\n              tag_13\n              jumpi\n              0x00\n              dup1\n              revert\n            tag_13:\n              pop\n              tag_14\n              0x04\n              dup1\n              calldatasize\n              sub\n              dup2\n              add\n              swap1\n              tag_15\n              swap2\n              swap1\n              tag_16\n              jump\t// in\n            tag_15:\n              tag_17\n              jump\t// in\n            tag_14:\n              stop\n                /* \"Campaign.sol\":893:934  mapping(address => bool) public approvers */\n            tag_3:\n              callvalue\n              dup1\n              iszero\n              tag_18\n              jumpi\n              0x00\n              dup1\n              revert\n            tag_18:\n              pop\n              tag_19\n              0x04\n              dup1\n              calldatasize\n              sub\n              dup2\n              add\n              swap1\n              tag_20\n              swap2\n              swap1\n              tag_21\n              jump\t// in\n            tag_20:\n              tag_22\n              jump\t// in\n            tag_19:\n              mload(0x40)\n              tag_23\n              swap2\n              swap1\n              tag_24\n              jump\t// in\n            tag_23:\n              mload(0x40)\n              dup1\n              swap2\n              sub\n              swap1\n              return\n                /* \"Campaign.sol\":1011:1043  uint public totalAmountRised = 0 */\n            tag_4:\n              callvalue\n              dup1\n              iszero\n              tag_25\n              jumpi\n              0x00\n              dup1\n              revert\n            tag_25:\n              pop\n              tag_26\n              tag_27\n              jump\t// in\n            tag_26:\n              mload(0x40)\n              tag_28\n              swap2\n              swap1\n              tag_29\n              jump\t// in\n            tag_28:\n              mload(0x40)\n              dup1\n              swap2\n              sub\n              swap1\n              return\n                /* \"Campaign.sol\":828:850  address public manager */\n            tag_5:\n              callvalue\n              dup1\n              iszero\n              tag_30\n              jumpi\n              0x00\n              dup1\n              revert\n            tag_30:\n              pop\n              tag_31\n              tag_32\n              jump\t// in\n            tag_31:\n              mload(0x40)\n              tag_33\n              swap2\n              swap1\n              tag_34\n              jump\t// in\n            tag_33:\n              mload(0x40)\n              dup1\n              swap2\n              sub\n              swap1\n              return\n                /* \"Campaign.sol\":797:822  Request[] public requests */\n            tag_6:\n              callvalue\n              dup1\n              iszero\n              tag_35\n              jumpi\n              0x00\n              dup1\n              revert\n            tag_35:\n              pop\n              tag_36\n              0x04\n              dup1\n              calldatasize\n              sub\n              dup2\n              add\n              swap1\n              tag_37\n              swap2\n              swap1\n              tag_16\n              jump\t// in\n            tag_37:\n              tag_38\n              jump\t// in\n            tag_36:\n              mload(0x40)\n              tag_39\n              swap6\n              swap5\n              swap4\n              swap3\n              swap2\n              swap1\n              tag_40\n              jump\t// in\n            tag_39:\n              mload(0x40)\n              dup1\n              swap2\n              sub\n              swap1\n              return\n                /* \"Campaign.sol\":975:1005  uint public approversCount = 0 */\n            tag_7:\n              callvalue\n              dup1\n              iszero\n              tag_41\n              jumpi\n              0x00\n              dup1\n              revert\n            tag_41:\n              pop\n              tag_42\n              tag_43\n              jump\t// in\n            tag_42:\n              mload(0x40)\n              tag_44\n              swap2\n              swap1\n              tag_29\n              jump\t// in\n            tag_44:\n              mload(0x40)\n              dup1\n              swap2\n              sub\n              swap1\n              return\n                /* \"Campaign.sol\":1514:2494  function createRequest(string memory description, uint value, address payable recipient) ... */\n            tag_8:\n              callvalue\n              dup1\n              iszero\n              tag_45\n              jumpi\n              0x00\n              dup1\n              revert\n            tag_45:\n              pop\n              tag_46\n              0x04\n              dup1\n              calldatasize\n              sub\n              dup2\n              add\n              swap1\n              tag_47\n              swap2\n              swap1\n              tag_48\n              jump\t// in\n            tag_47:\n              tag_49\n              jump\t// in\n            tag_46:\n              stop\n                /* \"Campaign.sol\":856:887  uint public minimumContribution */\n            tag_9:\n              callvalue\n              dup1\n              iszero\n              tag_50\n              jumpi\n              0x00\n              dup1\n              revert\n            tag_50:\n              pop\n              tag_51\n              tag_52\n              jump\t// in\n            tag_51:\n              mload(0x40)\n              tag_53\n              swap2\n              swap1\n              tag_29\n              jump\t// in\n            tag_53:\n              mload(0x40)\n              dup1\n              swap2\n              sub\n              swap1\n              return\n                /* \"Campaign.sol\":1261:1508  function contribute() public payable{... */\n            tag_10:\n              tag_54\n              tag_55\n              jump\t// in\n            tag_54:\n              stop\n                /* \"Campaign.sol\":2501:2936  function approveRequest(uint index) public {... */\n            tag_11:\n              callvalue\n              dup1\n              iszero\n              tag_56\n              jumpi\n              0x00\n              dup1\n              revert\n            tag_56:\n              pop\n              tag_57\n              0x04\n              dup1\n              calldatasize\n              sub\n              dup2\n              add\n              swap1\n              tag_58\n              swap2\n              swap1\n              tag_16\n              jump\t// in\n            tag_58:\n              tag_59\n              jump\t// in\n            tag_57:\n              stop\n                /* \"Campaign.sol\":2942:3249  function finalizeRequest(uint index) public restricted {... */\n            tag_17:\n                /* \"Campaign.sol\":1229:1236  manager */\n              0x01\n              0x00\n              swap1\n              sload\n              swap1\n              0x0100\n              exp\n              swap1\n              div\n              0xffffffffffffffffffffffffffffffffffffffff\n              and\n                /* \"Campaign.sol\":1215:1236  msg.sender == manager */\n              0xffffffffffffffffffffffffffffffffffffffff\n              and\n                /* \"Campaign.sol\":1215:1225  msg.sender */\n              caller\n                /* \"Campaign.sol\":1215:1236  msg.sender == manager */\n              0xffffffffffffffffffffffffffffffffffffffff\n              and\n              eq\n                /* \"Campaign.sol\":1207:1237  require(msg.sender == manager) */\n              tag_61\n              jumpi\n              0x00\n              dup1\n              revert\n            tag_61:\n                /* \"Campaign.sol\":3016:3039  Request storage request */\n              0x00\n                /* \"Campaign.sol\":3042:3050  requests */\n              dup1\n                /* \"Campaign.sol\":3051:3056  index */\n              dup3\n                /* \"Campaign.sol\":3042:3057  requests[index] */\n              dup2\n              sload\n              dup2\n              lt\n              tag_63\n              jumpi\n              tag_64\n              tag_65\n              jump\t// in\n            tag_64:\n            tag_63:\n              swap1\n              0x00\n              mstore\n              keccak256(0x00, 0x20)\n              swap1\n              0x05\n              mul\n              add\n                /* \"Campaign.sol\":3016:3057  Request storage request = requests[index] */\n              swap1\n              pop\n                /* \"Campaign.sol\":3115:3116  2 */\n              0x02\n                /* \"Campaign.sol\":3100:3114  approversCount */\n              sload(0x04)\n                /* \"Campaign.sol\":3100:3116  approversCount/2 */\n              tag_67\n              swap2\n              swap1\n              tag_68\n              jump\t// in\n            tag_67:\n                /* \"Campaign.sol\":3075:3082  request */\n              dup2\n                /* \"Campaign.sol\":3075:3096  request.approvalCount */\n              0x03\n              add\n              sload\n                /* \"Campaign.sol\":3075:3117  request.approvalCount > (approversCount/2) */\n              gt\n                /* \"Campaign.sol\":3067:3118  require(request.approvalCount > (approversCount/2)) */\n              tag_69\n              jumpi\n              0x00\n              dup1\n              revert\n            tag_69:\n                /* \"Campaign.sol\":3138:3145  request */\n              dup1\n                /* \"Campaign.sol\":3138:3154  request.complete */\n              0x02\n              add\n              0x14\n              swap1\n              sload\n              swap1\n              0x0100\n              exp\n              swap1\n              div\n              0xff\n              and\n                /* \"Campaign.sol\":3136:3154  ! request.complete */\n              iszero\n                /* \"Campaign.sol\":3128:3155  require(! request.complete) */\n              tag_70\n              jumpi\n              0x00\n              dup1\n              revert\n            tag_70:\n                /* \"Campaign.sol\":3166:3173  request */\n              dup1\n                /* \"Campaign.sol\":3166:3183  request.recipient */\n              0x02\n              add\n              0x00\n              swap1\n              sload\n              swap1\n              0x0100\n              exp\n              swap1\n              div\n              0xffffffffffffffffffffffffffffffffffffffff\n              and\n                /* \"Campaign.sol\":3166:3192  request.recipient.transfer */\n              0xffffffffffffffffffffffffffffffffffffffff\n              and\n                /* \"Campaign.sol\":3166:3207  request.recipient.transfer(request.value) */\n              0x08fc\n                /* \"Campaign.sol\":3193:3200  request */\n              dup3\n                /* \"Campaign.sol\":3193:3206  request.value */\n              0x01\n              add\n              sload\n                /* \"Campaign.sol\":3166:3207  request.recipient.transfer(request.value) */\n              swap1\n              dup2\n              iszero\n              mul\n              swap1\n              mload(0x40)\n              0x00\n              mload(0x40)\n              dup1\n              dup4\n              sub\n              dup2\n              dup6\n              dup9\n              dup9\n              call\n              swap4\n              pop\n              pop\n              pop\n              pop\n              iszero\n              dup1\n              iszero\n              tag_72\n              jumpi\n              returndatasize\n              0x00\n              dup1\n              returndatacopy\n              revert(0x00, returndatasize)\n            tag_72:\n              pop\n                /* \"Campaign.sol\":3236:3240  true */\n              0x01\n                /* \"Campaign.sol\":3217:3224  request */\n              dup2\n                /* \"Campaign.sol\":3217:3233  request.complete */\n              0x02\n              add\n              0x14\n                /* \"Campaign.sol\":3217:3240  request.complete = true */\n              0x0100\n              exp\n              dup2\n              sload\n              dup2\n              0xff\n              mul\n              not\n              and\n              swap1\n              dup4\n              iszero\n              iszero\n              mul\n              or\n              swap1\n              sstore\n              pop\n                /* \"Campaign.sol\":2997:3249  {... */\n              pop\n                /* \"Campaign.sol\":2942:3249  function finalizeRequest(uint index) public restricted {... */\n              pop\n              jump\t// out\n                /* \"Campaign.sol\":893:934  mapping(address => bool) public approvers */\n            tag_22:\n              mstore(0x20, 0x03)\n              dup1\n              0x00\n              mstore\n              keccak256(0x00, 0x40)\n              0x00\n              swap2\n              pop\n              sload\n              swap1\n              0x0100\n              exp\n              swap1\n              div\n              0xff\n              and\n              dup2\n              jump\t// out\n                /* \"Campaign.sol\":1011:1043  uint public totalAmountRised = 0 */\n            tag_27:\n              sload(0x05)\n              dup2\n              jump\t// out\n                /* \"Campaign.sol\":828:850  address public manager */\n            tag_32:\n              0x01\n              0x00\n              swap1\n              sload\n              swap1\n              0x0100\n              exp\n              swap1\n              div\n              0xffffffffffffffffffffffffffffffffffffffff\n              and\n              dup2\n              jump\t// out\n                /* \"Campaign.sol\":797:822  Request[] public requests */\n            tag_38:\n              0x00\n              dup2\n              dup2\n              sload\n              dup2\n              lt\n              tag_73\n              jumpi\n              0x00\n              dup1\n              revert\n            tag_73:\n              swap1\n              0x00\n              mstore\n              keccak256(0x00, 0x20)\n              swap1\n              0x05\n              mul\n              add\n              0x00\n              swap2\n              pop\n              swap1\n              pop\n              dup1\n              0x00\n              add\n              dup1\n              sload\n              tag_75\n              swap1\n              tag_76\n              jump\t// in\n            tag_75:\n              dup1\n              0x1f\n              add\n              0x20\n              dup1\n              swap2\n              div\n              mul\n              0x20\n              add\n              mload(0x40)\n              swap1\n              dup2\n              add\n              0x40\n              mstore\n              dup1\n              swap3\n              swap2\n              swap1\n              dup2\n              dup2\n              mstore\n              0x20\n              add\n              dup3\n              dup1\n              sload\n              tag_77\n              swap1\n              tag_76\n              jump\t// in\n            tag_77:\n              dup1\n              iszero\n              tag_78\n              jumpi\n              dup1\n              0x1f\n              lt\n              tag_79\n              jumpi\n              0x0100\n              dup1\n              dup4\n              sload\n              div\n              mul\n              dup4\n              mstore\n              swap2\n              0x20\n              add\n              swap2\n              jump(tag_78)\n            tag_79:\n              dup3\n              add\n              swap2\n              swap1\n              0x00\n              mstore\n              keccak256(0x00, 0x20)\n              swap1\n            tag_80:\n              dup2\n              sload\n              dup2\n              mstore\n              swap1\n              0x01\n              add\n              swap1\n              0x20\n              add\n              dup1\n              dup4\n              gt\n              tag_80\n              jumpi\n              dup3\n              swap1\n              sub\n              0x1f\n              and\n              dup3\n              add\n              swap2\n            tag_78:\n              pop\n              pop\n              pop\n              pop\n              pop\n              swap1\n              dup1\n              0x01\n              add\n              sload\n              swap1\n              dup1\n              0x02\n              add\n              0x00\n              swap1\n              sload\n              swap1\n              0x0100\n              exp\n              swap1\n              div\n              0xffffffffffffffffffffffffffffffffffffffff\n              and\n              swap1\n              dup1\n              0x02\n              add\n              0x14\n              swap1\n              sload\n              swap1\n              0x0100\n              exp\n              swap1\n              div\n              0xff\n              and\n              swap1\n              dup1\n              0x03\n              add\n              sload\n              swap1\n              pop\n              dup6\n              jump\t// out\n                /* \"Campaign.sol\":975:1005  uint public approversCount = 0 */\n            tag_43:\n              sload(0x04)\n              dup2\n              jump\t// out\n                /* \"Campaign.sol\":1514:2494  function createRequest(string memory description, uint value, address payable recipient) ... */\n            tag_49:\n                /* \"Campaign.sol\":1229:1236  manager */\n              0x01\n              0x00\n              swap1\n              sload\n              swap1\n              0x0100\n              exp\n              swap1\n              div\n              0xffffffffffffffffffffffffffffffffffffffff\n              and\n                /* \"Campaign.sol\":1215:1236  msg.sender == manager */\n              0xffffffffffffffffffffffffffffffffffffffff\n              and\n                /* \"Campaign.sol\":1215:1225  msg.sender */\n              caller\n                /* \"Campaign.sol\":1215:1236  msg.sender == manager */\n              0xffffffffffffffffffffffffffffffffffffffff\n              and\n              eq\n                /* \"Campaign.sol\":1207:1237  require(msg.sender == manager) */\n              tag_82\n              jumpi\n              0x00\n              dup1\n              revert\n            tag_82:\n                /* \"Campaign.sol\":1658:1679  address(this).balance */\n              selfbalance\n                /* \"Campaign.sol\":1649:1654  value */\n              dup3\n                /* \"Campaign.sol\":1649:1679  value <= address(this).balance */\n              gt\n              iszero\n                /* \"Campaign.sol\":1641:1680  require(value <= address(this).balance) */\n              tag_84\n              jumpi\n              0x00\n              dup1\n              revert\n            tag_84:\n                /* \"Campaign.sol\":1691:1708  Request storage r */\n              0x00\n                /* \"Campaign.sol\":1711:1719  requests */\n              dup1\n                /* \"Campaign.sol\":1711:1726  requests.push() */\n              0x01\n              dup2\n              0x01\n              dup2\n              sload\n              add\n              dup1\n              dup3\n              sstore\n              dup1\n              swap2\n              pop\n              pop\n              sub\n              swap1\n              0x00\n              mstore\n              keccak256(0x00, 0x20)\n              swap1\n              0x05\n              mul\n              add\n                /* \"Campaign.sol\":1691:1726  Request storage r = requests.push() */\n              swap1\n              pop\n                /* \"Campaign.sol\":1752:1763  description */\n              dup4\n                /* \"Campaign.sol\":1736:1737  r */\n              dup2\n                /* \"Campaign.sol\":1736:1749  r.description */\n              0x00\n              add\n                /* \"Campaign.sol\":1736:1763  r.description = description */\n              swap1\n              dup1\n              mload\n              swap1\n              0x20\n              add\n              swap1\n              tag_86\n              swap3\n              swap2\n              swap1\n              tag_87\n              jump\t// in\n            tag_86:\n              pop\n                /* \"Campaign.sol\":1783:1788  value */\n              dup3\n                /* \"Campaign.sol\":1773:1774  r */\n              dup2\n                /* \"Campaign.sol\":1773:1780  r.value */\n              0x01\n              add\n                /* \"Campaign.sol\":1773:1788  r.value = value */\n              dup2\n              swap1\n              sstore\n              pop\n                /* \"Campaign.sol\":1812:1821  recipient */\n              dup2\n                /* \"Campaign.sol\":1798:1799  r */\n              dup2\n                /* \"Campaign.sol\":1798:1809  r.recipient */\n              0x02\n              add\n              0x00\n                /* \"Campaign.sol\":1798:1821  r.recipient = recipient */\n              0x0100\n              exp\n              dup2\n              sload\n              dup2\n              0xffffffffffffffffffffffffffffffffffffffff\n              mul\n              not\n              and\n              swap1\n              dup4\n              0xffffffffffffffffffffffffffffffffffffffff\n              and\n              mul\n              or\n              swap1\n              sstore\n              pop\n                /* \"Campaign.sol\":1844:1849  false */\n              0x00\n                /* \"Campaign.sol\":1831:1832  r */\n              dup2\n                /* \"Campaign.sol\":1831:1841  r.complete */\n              0x02\n              add\n              0x14\n                /* \"Campaign.sol\":1831:1849  r.complete = false */\n              0x0100\n              exp\n              dup2\n              sload\n              dup2\n              0xff\n              mul\n              not\n              and\n              swap1\n              dup4\n              iszero\n              iszero\n              mul\n              or\n              swap1\n              sstore\n              pop\n                /* \"Campaign.sol\":1877:1878  0 */\n              0x00\n                /* \"Campaign.sol\":1859:1860  r */\n              dup2\n                /* \"Campaign.sol\":1859:1874  r.approvalCount */\n              0x03\n              add\n                /* \"Campaign.sol\":1859:1878  r.approvalCount = 0 */\n              dup2\n              swap1\n              sstore\n              pop\n                /* \"Campaign.sol\":1630:2494  {... */\n              pop\n                /* \"Campaign.sol\":1514:2494  function createRequest(string memory description, uint value, address payable recipient) ... */\n              pop\n              pop\n              pop\n              jump\t// out\n                /* \"Campaign.sol\":856:887  uint public minimumContribution */\n            tag_52:\n              sload(0x02)\n              dup2\n              jump\t// out\n                /* \"Campaign.sol\":1261:1508  function contribute() public payable{... */\n            tag_55:\n                /* \"Campaign.sol\":1328:1347  minimumContribution */\n              sload(0x02)\n                /* \"Campaign.sol\":1315:1324  msg.value */\n              callvalue\n                /* \"Campaign.sol\":1315:1347  msg.value >= minimumContribution */\n              lt\n              iszero\n                /* \"Campaign.sol\":1307:1348  require(msg.value >= minimumContribution) */\n              tag_89\n              jumpi\n              0x00\n              dup1\n              revert\n            tag_89:\n                /* \"Campaign.sol\":1382:1386  true */\n              0x01\n                /* \"Campaign.sol\":1358:1367  approvers */\n              0x03\n                /* \"Campaign.sol\":1358:1379  approvers[msg.sender] */\n              0x00\n                /* \"Campaign.sol\":1368:1378  msg.sender */\n              caller\n                /* \"Campaign.sol\":1358:1379  approvers[msg.sender] */\n              0xffffffffffffffffffffffffffffffffffffffff\n              and\n              0xffffffffffffffffffffffffffffffffffffffff\n              and\n              dup2\n              mstore\n              0x20\n              add\n              swap1\n              dup2\n              mstore\n              0x20\n              add\n              0x00\n              keccak256\n              0x00\n                /* \"Campaign.sol\":1358:1386  approvers[msg.sender] = true */\n              0x0100\n              exp\n              dup2\n              sload\n              dup2\n              0xff\n              mul\n              not\n              and\n              swap1\n              dup4\n              iszero\n              iszero\n              mul\n              or\n              swap1\n              sstore\n              pop\n                /* \"Campaign.sol\":1396:1410  approversCount */\n              0x04\n              0x00\n                /* \"Campaign.sol\":1396:1412  approversCount++ */\n              dup2\n              sload\n              dup1\n              swap3\n              swap2\n              swap1\n              tag_90\n              swap1\n              tag_91\n              jump\t// in\n            tag_90:\n              swap2\n              swap1\n              pop\n              sstore\n              pop\n                /* \"Campaign.sol\":1441:1462  address(this).balance */\n              selfbalance\n                /* \"Campaign.sol\":1422:1438  totalAmountRised */\n              0x05\n                /* \"Campaign.sol\":1422:1462  totalAmountRised = address(this).balance */\n              dup2\n              swap1\n              sstore\n              pop\n                /* \"Campaign.sol\":1261:1508  function contribute() public payable{... */\n              jump\t// out\n                /* \"Campaign.sol\":2501:2936  function approveRequest(uint index) public {... */\n            tag_59:\n                /* \"Campaign.sol\":2555:2578  Request storage request */\n              0x00\n                /* \"Campaign.sol\":2581:2589  requests */\n              dup1\n                /* \"Campaign.sol\":2590:2595  index */\n              dup3\n                /* \"Campaign.sol\":2581:2596  requests[index] */\n              dup2\n              sload\n              dup2\n              lt\n              tag_93\n              jumpi\n              tag_94\n              tag_65\n              jump\t// in\n            tag_94:\n            tag_93:\n              swap1\n              0x00\n              mstore\n              keccak256(0x00, 0x20)\n              swap1\n              0x05\n              mul\n              add\n                /* \"Campaign.sol\":2555:2596  Request storage request = requests[index] */\n              swap1\n              pop\n                /* \"Campaign.sol\":2615:2624  approvers */\n              0x03\n                /* \"Campaign.sol\":2615:2636  approvers[msg.sender] */\n              0x00\n                /* \"Campaign.sol\":2625:2635  msg.sender */\n              caller\n                /* \"Campaign.sol\":2615:2636  approvers[msg.sender] */\n              0xffffffffffffffffffffffffffffffffffffffff\n              and\n              0xffffffffffffffffffffffffffffffffffffffff\n              and\n              dup2\n              mstore\n              0x20\n              add\n              swap1\n              dup2\n              mstore\n              0x20\n              add\n              0x00\n              keccak256\n              0x00\n              swap1\n              sload\n              swap1\n              0x0100\n              exp\n              swap1\n              div\n              0xff\n              and\n                /* \"Campaign.sol\":2607:2637  require(approvers[msg.sender]) */\n              tag_96\n              jumpi\n              0x00\n              dup1\n              revert\n            tag_96:\n                /* \"Campaign.sol\":2716:2723  request */\n              dup1\n                /* \"Campaign.sol\":2716:2733  request.approvals */\n              0x04\n              add\n                /* \"Campaign.sol\":2716:2745  request.approvals[msg.sender] */\n              0x00\n                /* \"Campaign.sol\":2734:2744  msg.sender */\n              caller\n                /* \"Campaign.sol\":2716:2745  request.approvals[msg.sender] */\n              0xffffffffffffffffffffffffffffffffffffffff\n              and\n              0xffffffffffffffffffffffffffffffffffffffff\n              and\n              dup2\n              mstore\n              0x20\n              add\n              swap1\n              dup2\n              mstore\n              0x20\n              add\n              0x00\n              keccak256\n              0x00\n              swap1\n              sload\n              swap1\n              0x0100\n              exp\n              swap1\n              div\n              0xff\n              and\n                /* \"Campaign.sol\":2715:2745  !request.approvals[msg.sender] */\n              iszero\n                /* \"Campaign.sol\":2707:2746  require(!request.approvals[msg.sender]) */\n              tag_97\n              jumpi\n              0x00\n              dup1\n              revert\n            tag_97:\n                /* \"Campaign.sol\":2859:2866  request */\n              dup1\n                /* \"Campaign.sol\":2859:2880  request.approvalCount */\n              0x03\n              add\n              0x00\n                /* \"Campaign.sol\":2859:2882  request.approvalCount++ */\n              dup2\n              sload\n              dup1\n              swap3\n              swap2\n              swap1\n              tag_98\n              swap1\n              tag_91\n              jump\t// in\n            tag_98:\n              swap2\n              swap1\n              pop\n              sstore\n              pop\n                /* \"Campaign.sol\":2924:2928  true */\n              0x01\n                /* \"Campaign.sol\":2892:2899  request */\n              dup2\n                /* \"Campaign.sol\":2892:2909  request.approvals */\n              0x04\n              add\n                /* \"Campaign.sol\":2892:2921  request.approvals[msg.sender] */\n              0x00\n                /* \"Campaign.sol\":2910:2920  msg.sender */\n              caller\n                /* \"Campaign.sol\":2892:2921  request.approvals[msg.sender] */\n              0xffffffffffffffffffffffffffffffffffffffff\n              and\n              0xffffffffffffffffffffffffffffffffffffffff\n              and\n              dup2\n              mstore\n              0x20\n              add\n              swap1\n              dup2\n              mstore\n              0x20\n              add\n              0x00\n              keccak256\n              0x00\n                /* \"Campaign.sol\":2892:2928  request.approvals[msg.sender] = true */\n              0x0100\n              exp\n              dup2\n              sload\n              dup2\n              0xff\n              mul\n              not\n              and\n              swap1\n              dup4\n              iszero\n              iszero\n              mul\n              or\n              swap1\n              sstore\n              pop\n                /* \"Campaign.sol\":2544:2936  {... */\n              pop\n                /* \"Campaign.sol\":2501:2936  function approveRequest(uint index) public {... */\n              pop\n              jump\t// out\n            tag_87:\n              dup3\n              dup1\n              sload\n              tag_99\n              swap1\n              tag_76\n              jump\t// in\n            tag_99:\n              swap1\n              0x00\n              mstore\n              keccak256(0x00, 0x20)\n              swap1\n              0x1f\n              add\n              0x20\n              swap1\n              div\n              dup2\n              add\n              swap3\n              dup3\n              tag_101\n              jumpi\n              0x00\n              dup6\n              sstore\n              jump(tag_100)\n            tag_101:\n              dup3\n              0x1f\n              lt\n              tag_102\n              jumpi\n              dup1\n              mload\n              not(0xff)\n              and\n              dup4\n              dup1\n              add\n              or\n              dup6\n              sstore\n              jump(tag_100)\n            tag_102:\n              dup3\n              dup1\n              add\n              0x01\n              add\n              dup6\n              sstore\n              dup3\n              iszero\n              tag_100\n              jumpi\n              swap2\n              dup3\n              add\n            tag_103:\n              dup3\n              dup2\n              gt\n              iszero\n              tag_104\n              jumpi\n              dup3\n              mload\n              dup3\n              sstore\n              swap2\n              0x20\n              add\n              swap2\n              swap1\n              0x01\n              add\n              swap1\n              jump(tag_103)\n            tag_104:\n            tag_100:\n              pop\n              swap1\n              pop\n              tag_105\n              swap2\n              swap1\n              tag_106\n              jump\t// in\n            tag_105:\n              pop\n              swap1\n              jump\t// out\n            tag_106:\n            tag_107:\n              dup1\n              dup3\n              gt\n              iszero\n              tag_108\n              jumpi\n              0x00\n              dup2\n              0x00\n              swap1\n              sstore\n              pop\n              0x01\n              add\n              jump(tag_107)\n            tag_108:\n              pop\n              swap1\n              jump\t// out\n                /* \"#utility.yul\":7:82   */\n            tag_109:\n                /* \"#utility.yul\":40:46   */\n              0x00\n                /* \"#utility.yul\":73:75   */\n              0x40\n                /* \"#utility.yul\":67:76   */\n              mload\n                /* \"#utility.yul\":57:76   */\n              swap1\n              pop\n                /* \"#utility.yul\":7:82   */\n              swap1\n              jump\t// out\n                /* \"#utility.yul\":88:205   */\n            tag_110:\n                /* \"#utility.yul\":197:198   */\n              0x00\n                /* \"#utility.yul\":194:195   */\n              dup1\n                /* \"#utility.yul\":187:199   */\n              revert\n                /* \"#utility.yul\":211:328   */\n            tag_111:\n                /* \"#utility.yul\":320:321   */\n              0x00\n                /* \"#utility.yul\":317:318   */\n              dup1\n                /* \"#utility.yul\":310:322   */\n              revert\n                /* \"#utility.yul\":334:411   */\n            tag_112:\n                /* \"#utility.yul\":371:378   */\n              0x00\n                /* \"#utility.yul\":400:405   */\n              dup2\n                /* \"#utility.yul\":389:405   */\n              swap1\n              pop\n                /* \"#utility.yul\":334:411   */\n              swap2\n              swap1\n              pop\n              jump\t// out\n                /* \"#utility.yul\":417:539   */\n            tag_113:\n                /* \"#utility.yul\":490:514   */\n              tag_150\n                /* \"#utility.yul\":508:513   */\n              dup2\n                /* \"#utility.yul\":490:514   */\n              tag_112\n              jump\t// in\n            tag_150:\n                /* \"#utility.yul\":483:488   */\n              dup2\n                /* \"#utility.yul\":480:515   */\n              eq\n                /* \"#utility.yul\":470:533   */\n              tag_151\n              jumpi\n                /* \"#utility.yul\":529:530   */\n              0x00\n                /* \"#utility.yul\":526:527   */\n              dup1\n                /* \"#utility.yul\":519:531   */\n              revert\n                /* \"#utility.yul\":470:533   */\n            tag_151:\n                /* \"#utility.yul\":417:539   */\n              pop\n              jump\t// out\n                /* \"#utility.yul\":545:684   */\n            tag_114:\n                /* \"#utility.yul\":591:596   */\n              0x00\n                /* \"#utility.yul\":629:635   */\n              dup2\n                /* \"#utility.yul\":616:636   */\n              calldataload\n                /* \"#utility.yul\":607:636   */\n              swap1\n              pop\n                /* \"#utility.yul\":645:678   */\n              tag_153\n                /* \"#utility.yul\":672:677   */\n              dup2\n                /* \"#utility.yul\":645:678   */\n              tag_113\n              jump\t// in\n            tag_153:\n                /* \"#utility.yul\":545:684   */\n              swap3\n              swap2\n              pop\n              pop\n              jump\t// out\n                /* \"#utility.yul\":690:1019   */\n            tag_16:\n                /* \"#utility.yul\":749:755   */\n              0x00\n                /* \"#utility.yul\":798:800   */\n              0x20\n                /* \"#utility.yul\":786:795   */\n              dup3\n                /* \"#utility.yul\":777:784   */\n              dup5\n                /* \"#utility.yul\":773:796   */\n              sub\n                /* \"#utility.yul\":769:801   */\n              slt\n                /* \"#utility.yul\":766:885   */\n              iszero\n              tag_155\n              jumpi\n                /* \"#utility.yul\":804:883   */\n              tag_156\n              tag_110\n              jump\t// in\n            tag_156:\n                /* \"#utility.yul\":766:885   */\n            tag_155:\n                /* \"#utility.yul\":924:925   */\n              0x00\n                /* \"#utility.yul\":949:1002   */\n              tag_157\n                /* \"#utility.yul\":994:1001   */\n              dup5\n                /* \"#utility.yul\":985:991   */\n              dup3\n                /* \"#utility.yul\":974:983   */\n              dup6\n                /* \"#utility.yul\":970:992   */\n              add\n                /* \"#utility.yul\":949:1002   */\n              tag_114\n              jump\t// in\n            tag_157:\n                /* \"#utility.yul\":939:1002   */\n              swap2\n              pop\n                /* \"#utility.yul\":895:1012   */\n              pop\n                /* \"#utility.yul\":690:1019   */\n              swap3\n              swap2\n              pop\n              pop\n              jump\t// out\n                /* \"#utility.yul\":1025:1151   */\n            tag_115:\n                /* \"#utility.yul\":1062:1069   */\n              0x00\n                /* \"#utility.yul\":1102:1144   */\n              0xffffffffffffffffffffffffffffffffffffffff\n                /* \"#utility.yul\":1095:1100   */\n              dup3\n                /* \"#utility.yul\":1091:1145   */\n              and\n                /* \"#utility.yul\":1080:1145   */\n              swap1\n              pop\n                /* \"#utility.yul\":1025:1151   */\n              swap2\n              swap1\n              pop\n              jump\t// out\n                /* \"#utility.yul\":1157:1253   */\n            tag_116:\n                /* \"#utility.yul\":1194:1201   */\n              0x00\n                /* \"#utility.yul\":1223:1247   */\n              tag_160\n                /* \"#utility.yul\":1241:1246   */\n              dup3\n                /* \"#utility.yul\":1223:1247   */\n              tag_115\n              jump\t// in\n            tag_160:\n                /* \"#utility.yul\":1212:1247   */\n              swap1\n              pop\n                /* \"#utility.yul\":1157:1253   */\n              swap2\n              swap1\n              pop\n              jump\t// out\n                /* \"#utility.yul\":1259:1381   */\n            tag_117:\n                /* \"#utility.yul\":1332:1356   */\n              tag_162\n                /* \"#utility.yul\":1350:1355   */\n              dup2\n                /* \"#utility.yul\":1332:1356   */\n              tag_116\n              jump\t// in\n            tag_162:\n                /* \"#utility.yul\":1325:1330   */\n              dup2\n                /* \"#utility.yul\":1322:1357   */\n              eq\n                /* \"#utility.yul\":1312:1375   */\n              tag_163\n              jumpi\n                /* \"#utility.yul\":1371:1372   */\n              0x00\n                /* \"#utility.yul\":1368:1369   */\n              dup1\n                /* \"#utility.yul\":1361:1373   */\n              revert\n                /* \"#utility.yul\":1312:1375   */\n            tag_163:\n                /* \"#utility.yul\":1259:1381   */\n              pop\n              jump\t// out\n                /* \"#utility.yul\":1387:1526   */\n            tag_118:\n                /* \"#utility.yul\":1433:1438   */\n              0x00\n                /* \"#utility.yul\":1471:1477   */\n              dup2\n                /* \"#utility.yul\":1458:1478   */\n              calldataload\n                /* \"#utility.yul\":1449:1478   */\n              swap1\n              pop\n                /* \"#utility.yul\":1487:1520   */\n              tag_165\n                /* \"#utility.yul\":1514:1519   */\n              dup2\n                /* \"#utility.yul\":1487:1520   */\n              tag_117\n              jump\t// in\n            tag_165:\n                /* \"#utility.yul\":1387:1526   */\n              swap3\n              swap2\n              pop\n              pop\n              jump\t// out\n                /* \"#utility.yul\":1532:1861   */\n            tag_21:\n                /* \"#utility.yul\":1591:1597   */\n              0x00\n                /* \"#utility.yul\":1640:1642   */\n              0x20\n                /* \"#utility.yul\":1628:1637   */\n              dup3\n                /* \"#utility.yul\":1619:1626   */\n              dup5\n                /* \"#utility.yul\":1615:1638   */\n              sub\n                /* \"#utility.yul\":1611:1643   */\n              slt\n                /* \"#utility.yul\":1608:1727   */\n              iszero\n              tag_167\n              jumpi\n                /* \"#utility.yul\":1646:1725   */\n              tag_168\n              tag_110\n              jump\t// in\n            tag_168:\n                /* \"#utility.yul\":1608:1727   */\n            tag_167:\n                /* \"#utility.yul\":1766:1767   */\n              0x00\n                /* \"#utility.yul\":1791:1844   */\n              tag_169\n                /* \"#utility.yul\":1836:1843   */\n              dup5\n                /* \"#utility.yul\":1827:1833   */\n              dup3\n                /* \"#utility.yul\":1816:1825   */\n              dup6\n                /* \"#utility.yul\":1812:1834   */\n              add\n                /* \"#utility.yul\":1791:1844   */\n              tag_118\n              jump\t// in\n            tag_169:\n                /* \"#utility.yul\":1781:1844   */\n              swap2\n              pop\n                /* \"#utility.yul\":1737:1854   */\n              pop\n                /* \"#utility.yul\":1532:1861   */\n              swap3\n              swap2\n              pop\n              pop\n              jump\t// out\n                /* \"#utility.yul\":1867:1957   */\n            tag_119:\n                /* \"#utility.yul\":1901:1908   */\n              0x00\n                /* \"#utility.yul\":1944:1949   */\n              dup2\n                /* \"#utility.yul\":1937:1950   */\n              iszero\n                /* \"#utility.yul\":1930:1951   */\n              iszero\n                /* \"#utility.yul\":1919:1951   */\n              swap1\n              pop\n                /* \"#utility.yul\":1867:1957   */\n              swap2\n              swap1\n              pop\n              jump\t// out\n                /* \"#utility.yul\":1963:2072   */\n            tag_120:\n                /* \"#utility.yul\":2044:2065   */\n              tag_172\n                /* \"#utility.yul\":2059:2064   */\n              dup2\n                /* \"#utility.yul\":2044:2065   */\n              tag_119\n              jump\t// in\n            tag_172:\n                /* \"#utility.yul\":2039:2042   */\n              dup3\n                /* \"#utility.yul\":2032:2066   */\n              mstore\n                /* \"#utility.yul\":1963:2072   */\n              pop\n              pop\n              jump\t// out\n                /* \"#utility.yul\":2078:2288   */\n            tag_24:\n                /* \"#utility.yul\":2165:2169   */\n              0x00\n                /* \"#utility.yul\":2203:2205   */\n              0x20\n                /* \"#utility.yul\":2192:2201   */\n              dup3\n                /* \"#utility.yul\":2188:2206   */\n              add\n                /* \"#utility.yul\":2180:2206   */\n              swap1\n              pop\n                /* \"#utility.yul\":2216:2281   */\n              tag_174\n                /* \"#utility.yul\":2278:2279   */\n              0x00\n                /* \"#utility.yul\":2267:2276   */\n              dup4\n                /* \"#utility.yul\":2263:2280   */\n              add\n                /* \"#utility.yul\":2254:2260   */\n              dup5\n                /* \"#utility.yul\":2216:2281   */\n              tag_120\n              jump\t// in\n            tag_174:\n                /* \"#utility.yul\":2078:2288   */\n              swap3\n              swap2\n              pop\n              pop\n              jump\t// out\n                /* \"#utility.yul\":2294:2412   */\n            tag_121:\n                /* \"#utility.yul\":2381:2405   */\n              tag_176\n                /* \"#utility.yul\":2399:2404   */\n              dup2\n                /* \"#utility.yul\":2381:2405   */\n              tag_112\n              jump\t// in\n            tag_176:\n                /* \"#utility.yul\":2376:2379   */\n              dup3\n                /* \"#utility.yul\":2369:2406   */\n              mstore\n                /* \"#utility.yul\":2294:2412   */\n              pop\n              pop\n              jump\t// out\n                /* \"#utility.yul\":2418:2640   */\n            tag_29:\n                /* \"#utility.yul\":2511:2515   */\n              0x00\n                /* \"#utility.yul\":2549:2551   */\n              0x20\n                /* \"#utility.yul\":2538:2547   */\n              dup3\n                /* \"#utility.yul\":2534:2552   */\n              add\n                /* \"#utility.yul\":2526:2552   */\n              swap1\n              pop\n                /* \"#utility.yul\":2562:2633   */\n              tag_178\n                /* \"#utility.yul\":2630:2631   */\n              0x00\n                /* \"#utility.yul\":2619:2628   */\n              dup4\n                /* \"#utility.yul\":2615:2632   */\n              add\n                /* \"#utility.yul\":2606:2612   */\n              dup5\n                /* \"#utility.yul\":2562:2633   */\n              tag_121\n              jump\t// in\n            tag_178:\n                /* \"#utility.yul\":2418:2640   */\n              swap3\n              swap2\n              pop\n              pop\n              jump\t// out\n                /* \"#utility.yul\":2646:2764   */\n            tag_122:\n                /* \"#utility.yul\":2733:2757   */\n              tag_180\n                /* \"#utility.yul\":2751:2756   */\n              dup2\n                /* \"#utility.yul\":2733:2757   */\n              tag_116\n              jump\t// in\n            tag_180:\n                /* \"#utility.yul\":2728:2731   */\n              dup3\n                /* \"#utility.yul\":2721:2758   */\n              mstore\n                /* \"#utility.yul\":2646:2764   */\n              pop\n              pop\n              jump\t// out\n                /* \"#utility.yul\":2770:2992   */\n            tag_34:\n                /* \"#utility.yul\":2863:2867   */\n              0x00\n                /* \"#utility.yul\":2901:2903   */\n              0x20\n                /* \"#utility.yul\":2890:2899   */\n              dup3\n                /* \"#utility.yul\":2886:2904   */\n              add\n                /* \"#utility.yul\":2878:2904   */\n              swap1\n              pop\n                /* \"#utility.yul\":2914:2985   */\n              tag_182\n                /* \"#utility.yul\":2982:2983   */\n              0x00\n                /* \"#utility.yul\":2971:2980   */\n              dup4\n                /* \"#utility.yul\":2967:2984   */\n              add\n                /* \"#utility.yul\":2958:2964   */\n              dup5\n                /* \"#utility.yul\":2914:2985   */\n              tag_122\n              jump\t// in\n            tag_182:\n                /* \"#utility.yul\":2770:2992   */\n              swap3\n              swap2\n              pop\n              pop\n              jump\t// out\n                /* \"#utility.yul\":2998:3097   */\n            tag_123:\n                /* \"#utility.yul\":3050:3056   */\n              0x00\n                /* \"#utility.yul\":3084:3089   */\n              dup2\n                /* \"#utility.yul\":3078:3090   */\n              mload\n                /* \"#utility.yul\":3068:3090   */\n              swap1\n              pop\n                /* \"#utility.yul\":2998:3097   */\n              swap2\n              swap1\n              pop\n              jump\t// out\n                /* \"#utility.yul\":3103:3272   */\n            tag_124:\n                /* \"#utility.yul\":3187:3198   */\n              0x00\n                /* \"#utility.yul\":3221:3227   */\n              dup3\n                /* \"#utility.yul\":3216:3219   */\n              dup3\n                /* \"#utility.yul\":3209:3228   */\n              mstore\n                /* \"#utility.yul\":3261:3265   */\n              0x20\n                /* \"#utility.yul\":3256:3259   */\n              dup3\n                /* \"#utility.yul\":3252:3266   */\n              add\n                /* \"#utility.yul\":3237:3266   */\n              swap1\n              pop\n                /* \"#utility.yul\":3103:3272   */\n              swap3\n              swap2\n              pop\n              pop\n              jump\t// out\n                /* \"#utility.yul\":3278:3585   */\n            tag_125:\n                /* \"#utility.yul\":3346:3347   */\n              0x00\n                /* \"#utility.yul\":3356:3469   */\n            tag_186:\n                /* \"#utility.yul\":3370:3376   */\n              dup4\n                /* \"#utility.yul\":3367:3368   */\n              dup2\n                /* \"#utility.yul\":3364:3377   */\n              lt\n                /* \"#utility.yul\":3356:3469   */\n              iszero\n              tag_188\n              jumpi\n                /* \"#utility.yul\":3455:3456   */\n              dup1\n                /* \"#utility.yul\":3450:3453   */\n              dup3\n                /* \"#utility.yul\":3446:3457   */\n              add\n                /* \"#utility.yul\":3440:3458   */\n              mload\n                /* \"#utility.yul\":3436:3437   */\n              dup2\n                /* \"#utility.yul\":3431:3434   */\n              dup5\n                /* \"#utility.yul\":3427:3438   */\n              add\n                /* \"#utility.yul\":3420:3459   */\n              mstore\n                /* \"#utility.yul\":3392:3394   */\n              0x20\n                /* \"#utility.yul\":3389:3390   */\n              dup2\n                /* \"#utility.yul\":3385:3395   */\n              add\n                /* \"#utility.yul\":3380:3395   */\n              swap1\n              pop\n                /* \"#utility.yul\":3356:3469   */\n              jump(tag_186)\n            tag_188:\n                /* \"#utility.yul\":3487:3493   */\n              dup4\n                /* \"#utility.yul\":3484:3485   */\n              dup2\n                /* \"#utility.yul\":3481:3494   */\n              gt\n                /* \"#utility.yul\":3478:3579   */\n              iszero\n              tag_189\n              jumpi\n                /* \"#utility.yul\":3567:3568   */\n              0x00\n                /* \"#utility.yul\":3558:3564   */\n              dup5\n                /* \"#utility.yul\":3553:3556   */\n              dup5\n                /* \"#utility.yul\":3549:3565   */\n              add\n                /* \"#utility.yul\":3542:3569   */\n              mstore\n                /* \"#utility.yul\":3478:3579   */\n            tag_189:\n                /* \"#utility.yul\":3327:3585   */\n              pop\n                /* \"#utility.yul\":3278:3585   */\n              pop\n              pop\n              pop\n              jump\t// out\n                /* \"#utility.yul\":3591:3693   */\n            tag_126:\n                /* \"#utility.yul\":3632:3638   */\n              0x00\n                /* \"#utility.yul\":3683:3685   */\n              0x1f\n                /* \"#utility.yul\":3679:3686   */\n              not\n                /* \"#utility.yul\":3674:3676   */\n              0x1f\n                /* \"#utility.yul\":3667:3672   */\n              dup4\n                /* \"#utility.yul\":3663:3677   */\n              add\n                /* \"#utility.yul\":3659:3687   */\n              and\n                /* \"#utility.yul\":3649:3687   */\n              swap1\n              pop\n                /* \"#utility.yul\":3591:3693   */\n              swap2\n              swap1\n              pop\n              jump\t// out\n                /* \"#utility.yul\":3699:4063   */\n            tag_127:\n                /* \"#utility.yul\":3787:3790   */\n              0x00\n                /* \"#utility.yul\":3815:3854   */\n              tag_192\n                /* \"#utility.yul\":3848:3853   */\n              dup3\n                /* \"#utility.yul\":3815:3854   */\n              tag_123\n              jump\t// in\n            tag_192:\n                /* \"#utility.yul\":3870:3941   */\n              tag_193\n                /* \"#utility.yul\":3934:3940   */\n              dup2\n                /* \"#utility.yul\":3929:3932   */\n              dup6\n                /* \"#utility.yul\":3870:3941   */\n              tag_124\n              jump\t// in\n            tag_193:\n                /* \"#utility.yul\":3863:3941   */\n              swap4\n              pop\n                /* \"#utility.yul\":3950:4002   */\n              tag_194\n                /* \"#utility.yul\":3995:4001   */\n              dup2\n                /* \"#utility.yul\":3990:3993   */\n              dup6\n                /* \"#utility.yul\":3983:3987   */\n              0x20\n                /* \"#utility.yul\":3976:3981   */\n              dup7\n                /* \"#utility.yul\":3972:3988   */\n              add\n                /* \"#utility.yul\":3950:4002   */\n              tag_125\n              jump\t// in\n            tag_194:\n                /* \"#utility.yul\":4027:4056   */\n              tag_195\n                /* \"#utility.yul\":4049:4055   */\n              dup2\n                /* \"#utility.yul\":4027:4056   */\n              tag_126\n              jump\t// in\n            tag_195:\n                /* \"#utility.yul\":4022:4025   */\n              dup5\n                /* \"#utility.yul\":4018:4057   */\n              add\n                /* \"#utility.yul\":4011:4057   */\n              swap2\n              pop\n                /* \"#utility.yul\":3791:4063   */\n              pop\n                /* \"#utility.yul\":3699:4063   */\n              swap3\n              swap2\n              pop\n              pop\n              jump\t// out\n                /* \"#utility.yul\":4069:4173   */\n            tag_128:\n                /* \"#utility.yul\":4114:4121   */\n              0x00\n                /* \"#utility.yul\":4143:4167   */\n              tag_197\n                /* \"#utility.yul\":4161:4166   */\n              dup3\n                /* \"#utility.yul\":4143:4167   */\n              tag_115\n              jump\t// in\n            tag_197:\n                /* \"#utility.yul\":4132:4167   */\n              swap1\n              pop\n                /* \"#utility.yul\":4069:4173   */\n              swap2\n              swap1\n              pop\n              jump\t// out\n                /* \"#utility.yul\":4179:4321   */\n            tag_129:\n                /* \"#utility.yul\":4282:4314   */\n              tag_199\n                /* \"#utility.yul\":4308:4313   */\n              dup2\n                /* \"#utility.yul\":4282:4314   */\n              tag_128\n              jump\t// in\n            tag_199:\n                /* \"#utility.yul\":4277:4280   */\n              dup3\n                /* \"#utility.yul\":4270:4315   */\n              mstore\n                /* \"#utility.yul\":4179:4321   */\n              pop\n              pop\n              jump\t// out\n                /* \"#utility.yul\":4327:5102   */\n            tag_40:\n                /* \"#utility.yul\":4562:4566   */\n              0x00\n                /* \"#utility.yul\":4600:4603   */\n              0xa0\n                /* \"#utility.yul\":4589:4598   */\n              dup3\n                /* \"#utility.yul\":4585:4604   */\n              add\n                /* \"#utility.yul\":4577:4604   */\n              swap1\n              pop\n                /* \"#utility.yul\":4650:4659   */\n              dup2\n                /* \"#utility.yul\":4644:4648   */\n              dup2\n                /* \"#utility.yul\":4640:4660   */\n              sub\n                /* \"#utility.yul\":4636:4637   */\n              0x00\n                /* \"#utility.yul\":4625:4634   */\n              dup4\n                /* \"#utility.yul\":4621:4638   */\n              add\n                /* \"#utility.yul\":4614:4661   */\n              mstore\n                /* \"#utility.yul\":4678:4756   */\n              tag_201\n                /* \"#utility.yul\":4751:4755   */\n              dup2\n                /* \"#utility.yul\":4742:4748   */\n              dup9\n                /* \"#utility.yul\":4678:4756   */\n              tag_127\n              jump\t// in\n            tag_201:\n                /* \"#utility.yul\":4670:4756   */\n              swap1\n              pop\n                /* \"#utility.yul\":4766:4838   */\n              tag_202\n                /* \"#utility.yul\":4834:4836   */\n              0x20\n                /* \"#utility.yul\":4823:4832   */\n              dup4\n                /* \"#utility.yul\":4819:4837   */\n              add\n                /* \"#utility.yul\":4810:4816   */\n              dup8\n                /* \"#utility.yul\":4766:4838   */\n              tag_121\n              jump\t// in\n            tag_202:\n                /* \"#utility.yul\":4848:4936   */\n              tag_203\n                /* \"#utility.yul\":4932:4934   */\n              0x40\n                /* \"#utility.yul\":4921:4930   */\n              dup4\n                /* \"#utility.yul\":4917:4935   */\n              add\n                /* \"#utility.yul\":4908:4914   */\n              dup7\n                /* \"#utility.yul\":4848:4936   */\n              tag_129\n              jump\t// in\n            tag_203:\n                /* \"#utility.yul\":4946:5012   */\n              tag_204\n                /* \"#utility.yul\":5008:5010   */\n              0x60\n                /* \"#utility.yul\":4997:5006   */\n              dup4\n                /* \"#utility.yul\":4993:5011   */\n              add\n                /* \"#utility.yul\":4984:4990   */\n              dup6\n                /* \"#utility.yul\":4946:5012   */\n              tag_120\n              jump\t// in\n            tag_204:\n                /* \"#utility.yul\":5022:5095   */\n              tag_205\n                /* \"#utility.yul\":5090:5093   */\n              0x80\n                /* \"#utility.yul\":5079:5088   */\n              dup4\n                /* \"#utility.yul\":5075:5094   */\n              add\n                /* \"#utility.yul\":5066:5072   */\n              dup5\n                /* \"#utility.yul\":5022:5095   */\n              tag_121\n              jump\t// in\n            tag_205:\n                /* \"#utility.yul\":4327:5102   */\n              swap7\n              swap6\n              pop\n              pop\n              pop\n              pop\n              pop\n              pop\n              jump\t// out\n                /* \"#utility.yul\":5108:5225   */\n            tag_130:\n                /* \"#utility.yul\":5217:5218   */\n              0x00\n                /* \"#utility.yul\":5214:5215   */\n              dup1\n                /* \"#utility.yul\":5207:5219   */\n              revert\n                /* \"#utility.yul\":5231:5348   */\n            tag_131:\n                /* \"#utility.yul\":5340:5341   */\n              0x00\n                /* \"#utility.yul\":5337:5338   */\n              dup1\n                /* \"#utility.yul\":5330:5342   */\n              revert\n                /* \"#utility.yul\":5354:5534   */\n            tag_132:\n                /* \"#utility.yul\":5402:5479   */\n              0x4e487b7100000000000000000000000000000000000000000000000000000000\n                /* \"#utility.yul\":5399:5400   */\n              0x00\n                /* \"#utility.yul\":5392:5480   */\n              mstore\n                /* \"#utility.yul\":5499:5503   */\n              0x41\n                /* \"#utility.yul\":5496:5497   */\n              0x04\n                /* \"#utility.yul\":5489:5504   */\n              mstore\n                /* \"#utility.yul\":5523:5527   */\n              0x24\n                /* \"#utility.yul\":5520:5521   */\n              0x00\n                /* \"#utility.yul\":5513:5528   */\n              revert\n                /* \"#utility.yul\":5540:5821   */\n            tag_133:\n                /* \"#utility.yul\":5623:5650   */\n              tag_210\n                /* \"#utility.yul\":5645:5649   */\n              dup3\n                /* \"#utility.yul\":5623:5650   */\n              tag_126\n              jump\t// in\n            tag_210:\n                /* \"#utility.yul\":5615:5621   */\n              dup2\n                /* \"#utility.yul\":5611:5651   */\n              add\n                /* \"#utility.yul\":5753:5759   */\n              dup2\n                /* \"#utility.yul\":5741:5751   */\n              dup2\n                /* \"#utility.yul\":5738:5760   */\n              lt\n                /* \"#utility.yul\":5717:5735   */\n              0xffffffffffffffff\n                /* \"#utility.yul\":5705:5715   */\n              dup3\n                /* \"#utility.yul\":5702:5736   */\n              gt\n                /* \"#utility.yul\":5699:5761   */\n              or\n                /* \"#utility.yul\":5696:5784   */\n              iszero\n              tag_211\n              jumpi\n                /* \"#utility.yul\":5764:5782   */\n              tag_212\n              tag_132\n              jump\t// in\n            tag_212:\n                /* \"#utility.yul\":5696:5784   */\n            tag_211:\n                /* \"#utility.yul\":5804:5814   */\n              dup1\n                /* \"#utility.yul\":5800:5802   */\n              0x40\n                /* \"#utility.yul\":5793:5815   */\n              mstore\n                /* \"#utility.yul\":5583:5821   */\n              pop\n                /* \"#utility.yul\":5540:5821   */\n              pop\n              pop\n              jump\t// out\n                /* \"#utility.yul\":5827:5956   */\n            tag_134:\n                /* \"#utility.yul\":5861:5867   */\n              0x00\n                /* \"#utility.yul\":5888:5908   */\n              tag_214\n              tag_109\n              jump\t// in\n            tag_214:\n                /* \"#utility.yul\":5878:5908   */\n              swap1\n              pop\n                /* \"#utility.yul\":5917:5950   */\n              tag_215\n                /* \"#utility.yul\":5945:5949   */\n              dup3\n                /* \"#utility.yul\":5937:5943   */\n              dup3\n                /* \"#utility.yul\":5917:5950   */\n              tag_133\n              jump\t// in\n            tag_215:\n                /* \"#utility.yul\":5827:5956   */\n              swap2\n              swap1\n              pop\n              jump\t// out\n                /* \"#utility.yul\":5962:6270   */\n            tag_135:\n                /* \"#utility.yul\":6024:6028   */\n              0x00\n                /* \"#utility.yul\":6114:6132   */\n              0xffffffffffffffff\n                /* \"#utility.yul\":6106:6112   */\n              dup3\n                /* \"#utility.yul\":6103:6133   */\n              gt\n                /* \"#utility.yul\":6100:6156   */\n              iszero\n              tag_217\n              jumpi\n                /* \"#utility.yul\":6136:6154   */\n              tag_218\n              tag_132\n              jump\t// in\n            tag_218:\n                /* \"#utility.yul\":6100:6156   */\n            tag_217:\n                /* \"#utility.yul\":6174:6203   */\n              tag_219\n                /* \"#utility.yul\":6196:6202   */\n              dup3\n                /* \"#utility.yul\":6174:6203   */\n              tag_126\n              jump\t// in\n            tag_219:\n                /* \"#utility.yul\":6166:6203   */\n              swap1\n              pop\n                /* \"#utility.yul\":6258:6262   */\n              0x20\n                /* \"#utility.yul\":6252:6256   */\n              dup2\n                /* \"#utility.yul\":6248:6263   */\n              add\n                /* \"#utility.yul\":6240:6263   */\n              swap1\n              pop\n                /* \"#utility.yul\":5962:6270   */\n              swap2\n              swap1\n              pop\n              jump\t// out\n                /* \"#utility.yul\":6276:6430   */\n            tag_136:\n                /* \"#utility.yul\":6360:6366   */\n              dup3\n                /* \"#utility.yul\":6355:6358   */\n              dup2\n                /* \"#utility.yul\":6350:6353   */\n              dup4\n                /* \"#utility.yul\":6337:6367   */\n              calldatacopy\n                /* \"#utility.yul\":6422:6423   */\n              0x00\n                /* \"#utility.yul\":6413:6419   */\n              dup4\n                /* \"#utility.yul\":6408:6411   */\n              dup4\n                /* \"#utility.yul\":6404:6420   */\n              add\n                /* \"#utility.yul\":6397:6424   */\n              mstore\n                /* \"#utility.yul\":6276:6430   */\n              pop\n              pop\n              pop\n              jump\t// out\n                /* \"#utility.yul\":6436:6848   */\n            tag_137:\n                /* \"#utility.yul\":6514:6519   */\n              0x00\n                /* \"#utility.yul\":6539:6605   */\n              tag_222\n                /* \"#utility.yul\":6555:6604   */\n              tag_223\n                /* \"#utility.yul\":6597:6603   */\n              dup5\n                /* \"#utility.yul\":6555:6604   */\n              tag_135\n              jump\t// in\n            tag_223:\n                /* \"#utility.yul\":6539:6605   */\n              tag_134\n              jump\t// in\n            tag_222:\n                /* \"#utility.yul\":6530:6605   */\n              swap1\n              pop\n                /* \"#utility.yul\":6628:6634   */\n              dup3\n                /* \"#utility.yul\":6621:6626   */\n              dup2\n                /* \"#utility.yul\":6614:6635   */\n              mstore\n                /* \"#utility.yul\":6666:6670   */\n              0x20\n                /* \"#utility.yul\":6659:6664   */\n              dup2\n                /* \"#utility.yul\":6655:6671   */\n              add\n                /* \"#utility.yul\":6704:6707   */\n              dup5\n                /* \"#utility.yul\":6695:6701   */\n              dup5\n                /* \"#utility.yul\":6690:6693   */\n              dup5\n                /* \"#utility.yul\":6686:6702   */\n              add\n                /* \"#utility.yul\":6683:6708   */\n              gt\n                /* \"#utility.yul\":6680:6792   */\n              iszero\n              tag_224\n              jumpi\n                /* \"#utility.yul\":6711:6790   */\n              tag_225\n              tag_131\n              jump\t// in\n            tag_225:\n                /* \"#utility.yul\":6680:6792   */\n            tag_224:\n                /* \"#utility.yul\":6801:6842   */\n              tag_226\n                /* \"#utility.yul\":6835:6841   */\n              dup5\n                /* \"#utility.yul\":6830:6833   */\n              dup3\n                /* \"#utility.yul\":6825:6828   */\n              dup6\n                /* \"#utility.yul\":6801:6842   */\n              tag_136\n              jump\t// in\n            tag_226:\n                /* \"#utility.yul\":6520:6848   */\n              pop\n                /* \"#utility.yul\":6436:6848   */\n              swap4\n              swap3\n              pop\n              pop\n              pop\n              jump\t// out\n                /* \"#utility.yul\":6868:7208   */\n            tag_138:\n                /* \"#utility.yul\":6924:6929   */\n              0x00\n                /* \"#utility.yul\":6973:6976   */\n              dup3\n                /* \"#utility.yul\":6966:6970   */\n              0x1f\n                /* \"#utility.yul\":6958:6964   */\n              dup4\n                /* \"#utility.yul\":6954:6971   */\n              add\n                /* \"#utility.yul\":6950:6977   */\n              slt\n                /* \"#utility.yul\":6940:7062   */\n              tag_228\n              jumpi\n                /* \"#utility.yul\":6981:7060   */\n              tag_229\n              tag_130\n              jump\t// in\n            tag_229:\n                /* \"#utility.yul\":6940:7062   */\n            tag_228:\n                /* \"#utility.yul\":7098:7104   */\n              dup2\n                /* \"#utility.yul\":7085:7105   */\n              calldataload\n                /* \"#utility.yul\":7123:7202   */\n              tag_230\n                /* \"#utility.yul\":7198:7201   */\n              dup5\n                /* \"#utility.yul\":7190:7196   */\n              dup3\n                /* \"#utility.yul\":7183:7187   */\n              0x20\n                /* \"#utility.yul\":7175:7181   */\n              dup7\n                /* \"#utility.yul\":7171:7188   */\n              add\n                /* \"#utility.yul\":7123:7202   */\n              tag_137\n              jump\t// in\n            tag_230:\n                /* \"#utility.yul\":7114:7202   */\n              swap2\n              pop\n                /* \"#utility.yul\":6930:7208   */\n              pop\n                /* \"#utility.yul\":6868:7208   */\n              swap3\n              swap2\n              pop\n              pop\n              jump\t// out\n                /* \"#utility.yul\":7214:7352   */\n            tag_139:\n                /* \"#utility.yul\":7295:7327   */\n              tag_232\n                /* \"#utility.yul\":7321:7326   */\n              dup2\n                /* \"#utility.yul\":7295:7327   */\n              tag_128\n              jump\t// in\n            tag_232:\n                /* \"#utility.yul\":7288:7293   */\n              dup2\n                /* \"#utility.yul\":7285:7328   */\n              eq\n                /* \"#utility.yul\":7275:7346   */\n              tag_233\n              jumpi\n                /* \"#utility.yul\":7342:7343   */\n              0x00\n                /* \"#utility.yul\":7339:7340   */\n              dup1\n                /* \"#utility.yul\":7332:7344   */\n              revert\n                /* \"#utility.yul\":7275:7346   */\n            tag_233:\n                /* \"#utility.yul\":7214:7352   */\n              pop\n              jump\t// out\n                /* \"#utility.yul\":7358:7513   */\n            tag_140:\n                /* \"#utility.yul\":7412:7417   */\n              0x00\n                /* \"#utility.yul\":7450:7456   */\n              dup2\n                /* \"#utility.yul\":7437:7457   */\n              calldataload\n                /* \"#utility.yul\":7428:7457   */\n              swap1\n              pop\n                /* \"#utility.yul\":7466:7507   */\n              tag_235\n                /* \"#utility.yul\":7501:7506   */\n              dup2\n                /* \"#utility.yul\":7466:7507   */\n              tag_139\n              jump\t// in\n            tag_235:\n                /* \"#utility.yul\":7358:7513   */\n              swap3\n              swap2\n              pop\n              pop\n              jump\t// out\n                /* \"#utility.yul\":7519:8334   */\n            tag_48:\n                /* \"#utility.yul\":7614:7620   */\n              0x00\n                /* \"#utility.yul\":7622:7628   */\n              dup1\n                /* \"#utility.yul\":7630:7636   */\n              0x00\n                /* \"#utility.yul\":7679:7681   */\n              0x60\n                /* \"#utility.yul\":7667:7676   */\n              dup5\n                /* \"#utility.yul\":7658:7665   */\n              dup7\n                /* \"#utility.yul\":7654:7677   */\n              sub\n                /* \"#utility.yul\":7650:7682   */\n              slt\n                /* \"#utility.yul\":7647:7766   */\n              iszero\n              tag_237\n              jumpi\n                /* \"#utility.yul\":7685:7764   */\n              tag_238\n              tag_110\n              jump\t// in\n            tag_238:\n                /* \"#utility.yul\":7647:7766   */\n            tag_237:\n                /* \"#utility.yul\":7833:7834   */\n              0x00\n                /* \"#utility.yul\":7822:7831   */\n              dup5\n                /* \"#utility.yul\":7818:7835   */\n              add\n                /* \"#utility.yul\":7805:7836   */\n              calldataload\n                /* \"#utility.yul\":7863:7881   */\n              0xffffffffffffffff\n                /* \"#utility.yul\":7855:7861   */\n              dup2\n                /* \"#utility.yul\":7852:7882   */\n              gt\n                /* \"#utility.yul\":7849:7966   */\n              iszero\n              tag_239\n              jumpi\n                /* \"#utility.yul\":7885:7964   */\n              tag_240\n              tag_111\n              jump\t// in\n            tag_240:\n                /* \"#utility.yul\":7849:7966   */\n            tag_239:\n                /* \"#utility.yul\":7990:8053   */\n              tag_241\n                /* \"#utility.yul\":8045:8052   */\n              dup7\n                /* \"#utility.yul\":8036:8042   */\n              dup3\n                /* \"#utility.yul\":8025:8034   */\n              dup8\n                /* \"#utility.yul\":8021:8043   */\n              add\n                /* \"#utility.yul\":7990:8053   */\n              tag_138\n              jump\t// in\n            tag_241:\n                /* \"#utility.yul\":7980:8053   */\n              swap4\n              pop\n                /* \"#utility.yul\":7776:8063   */\n              pop\n                /* \"#utility.yul\":8102:8104   */\n              0x20\n                /* \"#utility.yul\":8128:8181   */\n              tag_242\n                /* \"#utility.yul\":8173:8180   */\n              dup7\n                /* \"#utility.yul\":8164:8170   */\n              dup3\n                /* \"#utility.yul\":8153:8162   */\n              dup8\n                /* \"#utility.yul\":8149:8171   */\n              add\n                /* \"#utility.yul\":8128:8181   */\n              tag_114\n              jump\t// in\n            tag_242:\n                /* \"#utility.yul\":8118:8181   */\n              swap3\n              pop\n                /* \"#utility.yul\":8073:8191   */\n              pop\n                /* \"#utility.yul\":8230:8232   */\n              0x40\n                /* \"#utility.yul\":8256:8317   */\n              tag_243\n                /* \"#utility.yul\":8309:8316   */\n              dup7\n                /* \"#utility.yul\":8300:8306   */\n              dup3\n                /* \"#utility.yul\":8289:8298   */\n              dup8\n                /* \"#utility.yul\":8285:8307   */\n              add\n                /* \"#utility.yul\":8256:8317   */\n              tag_140\n              jump\t// in\n            tag_243:\n                /* \"#utility.yul\":8246:8317   */\n              swap2\n              pop\n                /* \"#utility.yul\":8201:8327   */\n              pop\n                /* \"#utility.yul\":7519:8334   */\n              swap3\n              pop\n              swap3\n              pop\n              swap3\n              jump\t// out\n                /* \"#utility.yul\":8340:8520   */\n            tag_65:\n                /* \"#utility.yul\":8388:8465   */\n              0x4e487b7100000000000000000000000000000000000000000000000000000000\n                /* \"#utility.yul\":8385:8386   */\n              0x00\n                /* \"#utility.yul\":8378:8466   */\n              mstore\n                /* \"#utility.yul\":8485:8489   */\n              0x32\n                /* \"#utility.yul\":8482:8483   */\n              0x04\n                /* \"#utility.yul\":8475:8490   */\n              mstore\n                /* \"#utility.yul\":8509:8513   */\n              0x24\n                /* \"#utility.yul\":8506:8507   */\n              0x00\n                /* \"#utility.yul\":8499:8514   */\n              revert\n                /* \"#utility.yul\":8526:8706   */\n            tag_141:\n                /* \"#utility.yul\":8574:8651   */\n              0x4e487b7100000000000000000000000000000000000000000000000000000000\n                /* \"#utility.yul\":8571:8572   */\n              0x00\n                /* \"#utility.yul\":8564:8652   */\n              mstore\n                /* \"#utility.yul\":8671:8675   */\n              0x12\n                /* \"#utility.yul\":8668:8669   */\n              0x04\n                /* \"#utility.yul\":8661:8676   */\n              mstore\n                /* \"#utility.yul\":8695:8699   */\n              0x24\n                /* \"#utility.yul\":8692:8693   */\n              0x00\n                /* \"#utility.yul\":8685:8700   */\n              revert\n                /* \"#utility.yul\":8712:8892   */\n            tag_142:\n                /* \"#utility.yul\":8760:8837   */\n              0x4e487b7100000000000000000000000000000000000000000000000000000000\n                /* \"#utility.yul\":8757:8758   */\n              0x00\n                /* \"#utility.yul\":8750:8838   */\n              mstore\n                /* \"#utility.yul\":8857:8861   */\n              0x11\n                /* \"#utility.yul\":8854:8855   */\n              0x04\n                /* \"#utility.yul\":8847:8862   */\n              mstore\n                /* \"#utility.yul\":8881:8885   */\n              0x24\n                /* \"#utility.yul\":8878:8879   */\n              0x00\n                /* \"#utility.yul\":8871:8886   */\n              revert\n                /* \"#utility.yul\":8898:9083   */\n            tag_68:\n                /* \"#utility.yul\":8938:8939   */\n              0x00\n                /* \"#utility.yul\":8955:8975   */\n              tag_248\n                /* \"#utility.yul\":8973:8974   */\n              dup3\n                /* \"#utility.yul\":8955:8975   */\n              tag_112\n              jump\t// in\n            tag_248:\n                /* \"#utility.yul\":8950:8975   */\n              swap2\n              pop\n                /* \"#utility.yul\":8989:9009   */\n              tag_249\n                /* \"#utility.yul\":9007:9008   */\n              dup4\n                /* \"#utility.yul\":8989:9009   */\n              tag_112\n              jump\t// in\n            tag_249:\n                /* \"#utility.yul\":8984:9009   */\n              swap3\n              pop\n                /* \"#utility.yul\":9028:9029   */\n              dup3\n                /* \"#utility.yul\":9018:9053   */\n              tag_250\n              jumpi\n                /* \"#utility.yul\":9033:9051   */\n              tag_251\n              tag_141\n              jump\t// in\n            tag_251:\n                /* \"#utility.yul\":9018:9053   */\n            tag_250:\n                /* \"#utility.yul\":9075:9076   */\n              dup3\n                /* \"#utility.yul\":9072:9073   */\n              dup3\n                /* \"#utility.yul\":9068:9077   */\n              div\n                /* \"#utility.yul\":9063:9077   */\n              swap1\n              pop\n                /* \"#utility.yul\":8898:9083   */\n              swap3\n              swap2\n              pop\n              pop\n              jump\t// out\n                /* \"#utility.yul\":9089:9269   */\n            tag_143:\n                /* \"#utility.yul\":9137:9214   */\n              0x4e487b7100000000000000000000000000000000000000000000000000000000\n                /* \"#utility.yul\":9134:9135   */\n              0x00\n                /* \"#utility.yul\":9127:9215   */\n              mstore\n                /* \"#utility.yul\":9234:9238   */\n              0x22\n                /* \"#utility.yul\":9231:9232   */\n              0x04\n                /* \"#utility.yul\":9224:9239   */\n              mstore\n                /* \"#utility.yul\":9258:9262   */\n              0x24\n                /* \"#utility.yul\":9255:9256   */\n              0x00\n                /* \"#utility.yul\":9248:9263   */\n              revert\n                /* \"#utility.yul\":9275:9595   */\n            tag_76:\n                /* \"#utility.yul\":9319:9325   */\n              0x00\n                /* \"#utility.yul\":9356:9357   */\n              0x02\n                /* \"#utility.yul\":9350:9354   */\n              dup3\n                /* \"#utility.yul\":9346:9358   */\n              div\n                /* \"#utility.yul\":9336:9358   */\n              swap1\n              pop\n                /* \"#utility.yul\":9403:9404   */\n              0x01\n                /* \"#utility.yul\":9397:9401   */\n              dup3\n                /* \"#utility.yul\":9393:9405   */\n              and\n                /* \"#utility.yul\":9424:9442   */\n              dup1\n                /* \"#utility.yul\":9414:9495   */\n              tag_254\n              jumpi\n                /* \"#utility.yul\":9480:9484   */\n              0x7f\n                /* \"#utility.yul\":9472:9478   */\n              dup3\n                /* \"#utility.yul\":9468:9485   */\n              and\n                /* \"#utility.yul\":9458:9485   */\n              swap2\n              pop\n                /* \"#utility.yul\":9414:9495   */\n            tag_254:\n                /* \"#utility.yul\":9542:9544   */\n              0x20\n                /* \"#utility.yul\":9534:9540   */\n              dup3\n                /* \"#utility.yul\":9531:9545   */\n              lt\n                /* \"#utility.yul\":9511:9529   */\n              dup2\n                /* \"#utility.yul\":9508:9546   */\n              eq\n                /* \"#utility.yul\":9505:9589   */\n              iszero\n              tag_255\n              jumpi\n                /* \"#utility.yul\":9561:9579   */\n              tag_256\n              tag_143\n              jump\t// in\n            tag_256:\n                /* \"#utility.yul\":9505:9589   */\n            tag_255:\n                /* \"#utility.yul\":9326:9595   */\n              pop\n                /* \"#utility.yul\":9275:9595   */\n              swap2\n              swap1\n              pop\n              jump\t// out\n                /* \"#utility.yul\":9601:9834   */\n            tag_91:\n                /* \"#utility.yul\":9640:9643   */\n              0x00\n                /* \"#utility.yul\":9663:9687   */\n              tag_258\n                /* \"#utility.yul\":9681:9686   */\n              dup3\n                /* \"#utility.yul\":9663:9687   */\n              tag_112\n              jump\t// in\n            tag_258:\n                /* \"#utility.yul\":9654:9687   */\n              swap2\n              pop\n                /* \"#utility.yul\":9709:9775   */\n              0xffffffffffffffffffffffffffffffffffffffffffffffffffffffffffffffff\n                /* \"#utility.yul\":9702:9707   */\n              dup3\n                /* \"#utility.yul\":9699:9776   */\n              eq\n                /* \"#utility.yul\":9696:9799   */\n              iszero\n              tag_259\n              jumpi\n                /* \"#utility.yul\":9779:9797   */\n              tag_260\n              tag_142\n              jump\t// in\n            tag_260:\n                /* \"#utility.yul\":9696:9799   */\n            tag_259:\n                /* \"#utility.yul\":9826:9827   */\n              0x01\n                /* \"#utility.yul\":9819:9824   */\n              dup3\n                /* \"#utility.yul\":9815:9828   */\n              add\n                /* \"#utility.yul\":9808:9828   */\n              swap1\n              pop\n                /* \"#utility.yul\":9601:9834   */\n              swap2\n              swap1\n              pop\n              jump\t// out\n\n            auxdata: 0xa26469706673582212209144b200a2a4558d42c9ef82f36f91e6aee465d4ef483b35b4d102f0429baa9364736f6c63430008090033\n        }\n    }\n\n    auxdata: 0xa26469706673582212202f573021206159232eb226b2bd606cf5cacab8cb9e9d1074165babf6b563733164736f6c63430008090033\n}\n","bytecode":{"linkReferences":{},"object":"608060405234801561001057600080fd5b50611446806100206000396000f3fe608060405234801561001057600080fd5b50600436106100415760003560e01c80634acb9d4f146100465780634af9edfe14610064578063a3303a7514610094575b600080fd5b61004e6100b0565b60405161005b9190610315565b60405180910390f35b61007e60048036038101906100799190610372565b61013e565b60405161008b91906103ae565b60405180910390f35b6100ae60048036038101906100a99190610372565b61017d565b005b6060600080548060200260200160405190810160405280929190818152602001828054801561013457602002820191906000526020600020905b8160009054906101000a900473ffffffffffffffffffffffffffffffffffffffff1673ffffffffffffffffffffffffffffffffffffffff16815260200190600101908083116100ea575b5050505050905090565b6000818154811061014e57600080fd5b906000526020600020016000915054906101000a900473ffffffffffffffffffffffffffffffffffffffff1681565b6000813360405161018d90610218565b6101989291906103d8565b604051809103906000f0801580156101b4573d6000803e3d6000fd5b509080600181540180825580915050600190039060005260206000200160009091909190916101000a81548173ffffffffffffffffffffffffffffffffffffffff021916908373ffffffffffffffffffffffffffffffffffffffff16021790555050565b61100f8061040283390190565b600081519050919050565b600082825260208201905092915050565b6000819050602082019050919050565b600073ffffffffffffffffffffffffffffffffffffffff82169050919050565b600061027c82610251565b9050919050565b61028c81610271565b82525050565b600061029e8383610283565b60208301905092915050565b6000602082019050919050565b60006102c282610225565b6102cc8185610230565b93506102d783610241565b8060005b838110156103085781516102ef8882610292565b97506102fa836102aa565b9250506001810190506102db565b5085935050505092915050565b6000602082019050818103600083015261032f81846102b7565b905092915050565b600080fd5b6000819050919050565b61034f8161033c565b811461035a57600080fd5b50565b60008135905061036c81610346565b92915050565b60006020828403121561038857610387610337565b5b60006103968482850161035d565b91505092915050565b6103a881610271565b82525050565b60006020820190506103c3600083018461039f565b92915050565b6103d28161033c565b82525050565b60006040820190506103ed60008301856103c9565b6103fa602083018461039f565b939250505056fe6080604052600060045560006005553480156200001b57600080fd5b506040516200100f3803806200100f833981810160405281019062000041919062000136565b80600160006101000a81548173ffffffffffffffffffffffffffffffffffffffff021916908373ffffffffffffffffffffffffffffffffffffffff1602179055508160028190555050506200017d565b600080fd5b6000819050919050565b620000ab8162000096565b8114620000b757600080fd5b50565b600081519050620000cb81620000a0565b92915050565b600073ffffffffffffffffffffffffffffffffffffffff82169050919050565b6000620000fe82620000d1565b9050919050565b6200011081620000f1565b81146200011c57600080fd5b50565b600081519050620001308162000105565b92915050565b6000806040838503121562000150576200014f62000091565b5b60006200016085828601620000ba565b925050602062000173858286016200011f565b9150509250929050565b610e82806200018d6000396000f3fe6080604052600436106100915760003560e01c806382fde0931161005957806382fde093146101935780638a9cfd55146101be578063937e09b1146101e7578063d7bb99ba14610212578063d7d1bbdb1461021c57610091565b806303441006146100965780630a144391146100bf57806323da254e146100fc578063481c6a751461012757806381d12c5814610152575b600080fd5b3480156100a257600080fd5b506100bd60048036038101906100b891906108be565b610245565b005b3480156100cb57600080fd5b506100e660048036038101906100e19190610949565b61038e565b6040516100f39190610991565b60405180910390f35b34801561010857600080fd5b506101116103ae565b60405161011e91906109bb565b60405180910390f35b34801561013357600080fd5b5061013c6103b4565b60405161014991906109e5565b60405180910390f35b34801561015e57600080fd5b50610179600480360381019061017491906108be565b6103da565b60405161018a959493929190610aba565b60405180910390f35b34801561019f57600080fd5b506101a86104d5565b6040516101b591906109bb565b60405180910390f35b3480156101ca57600080fd5b506101e560048036038101906101e09190610c75565b6104db565b005b3480156101f357600080fd5b506101fc6105f7565b60405161020991906109bb565b60405180910390f35b61021a6105fd565b005b34801561022857600080fd5b50610243600480360381019061023e91906108be565b610685565b005b600160009054906101000a900473ffffffffffffffffffffffffffffffffffffffff1673ffffffffffffffffffffffffffffffffffffffff163373ffffffffffffffffffffffffffffffffffffffff161461029f57600080fd5b60008082815481106102b4576102b3610ce4565b5b9060005260206000209060050201905060026004546102d39190610d71565b8160030154116102e257600080fd5b8060020160149054906101000a900460ff16156102fe57600080fd5b8060020160009054906101000a900473ffffffffffffffffffffffffffffffffffffffff1673ffffffffffffffffffffffffffffffffffffffff166108fc82600101549081150290604051600060405180830381858888f1935050505015801561036c573d6000803e3d6000fd5b5060018160020160146101000a81548160ff0219169083151502179055505050565b60036020528060005260406000206000915054906101000a900460ff1681565b60055481565b600160009054906101000a900473ffffffffffffffffffffffffffffffffffffffff1681565b600081815481106103ea57600080fd5b906000526020600020906005020160009150905080600001805461040d90610dd1565b80601f016020809104026020016040519081016040528092919081815260200182805461043990610dd1565b80156104865780601f1061045b57610100808354040283529160200191610486565b820191906000526020600020905b81548152906001019060200180831161046957829003601f168201915b5050505050908060010154908060020160009054906101000a900473ffffffffffffffffffffffffffffffffffffffff16908060020160149054906101000a900460ff16908060030154905085565b60045481565b600160009054906101000a900473ffffffffffffffffffffffffffffffffffffffff1673ffffffffffffffffffffffffffffffffffffffff163373ffffffffffffffffffffffffffffffffffffffff161461053557600080fd5b4782111561054257600080fd5b60008060018160018154018082558091505003906000526020600020906005020190508381600001908051906020019061057d9291906107d1565b50828160010181905550818160020160006101000a81548173ffffffffffffffffffffffffffffffffffffffff021916908373ffffffffffffffffffffffffffffffffffffffff16021790555060008160020160146101000a81548160ff0219169083151502179055506000816003018190555050505050565b60025481565b60025434101561060c57600080fd5b6001600360003373ffffffffffffffffffffffffffffffffffffffff1673ffffffffffffffffffffffffffffffffffffffff16815260200190815260200160002060006101000a81548160ff0219169083151502179055506004600081548092919061067790610e03565b919050555047600581905550565b600080828154811061069a57610699610ce4565b5b90600052602060002090600502019050600360003373ffffffffffffffffffffffffffffffffffffffff1673ffffffffffffffffffffffffffffffffffffffff16815260200190815260200160002060009054906101000a900460ff1661070057600080fd5b8060040160003373ffffffffffffffffffffffffffffffffffffffff1673ffffffffffffffffffffffffffffffffffffffff16815260200190815260200160002060009054906101000a900460ff161561075957600080fd5b80600301600081548092919061076e90610e03565b919050555060018160040160003373ffffffffffffffffffffffffffffffffffffffff1673ffffffffffffffffffffffffffffffffffffffff16815260200190815260200160002060006101000a81548160ff0219169083151502179055505050565b8280546107dd90610dd1565b90600052602060002090601f0160209004810192826107ff5760008555610846565b82601f1061081857805160ff1916838001178555610846565b82800160010185558215610846579182015b8281111561084557825182559160200191906001019061082a565b5b5090506108539190610857565b5090565b5b80821115610870576000816000905550600101610858565b5090565b6000604051905090565b600080fd5b600080fd5b6000819050919050565b61089b81610888565b81146108a657600080fd5b50565b6000813590506108b881610892565b92915050565b6000602082840312156108d4576108d361087e565b5b60006108e2848285016108a9565b91505092915050565b600073ffffffffffffffffffffffffffffffffffffffff82169050919050565b6000610916826108eb565b9050919050565b6109268161090b565b811461093157600080fd5b50565b6000813590506109438161091d565b92915050565b60006020828403121561095f5761095e61087e565b5b600061096d84828501610934565b91505092915050565b60008115159050919050565b61098b81610976565b82525050565b60006020820190506109a66000830184610982565b92915050565b6109b581610888565b82525050565b60006020820190506109d060008301846109ac565b92915050565b6109df8161090b565b82525050565b60006020820190506109fa60008301846109d6565b92915050565b600081519050919050565b600082825260208201905092915050565b60005b83811015610a3a578082015181840152602081019050610a1f565b83811115610a49576000848401525b50505050565b6000601f19601f8301169050919050565b6000610a6b82610a00565b610a758185610a0b565b9350610a85818560208601610a1c565b610a8e81610a4f565b840191505092915050565b6000610aa4826108eb565b9050919050565b610ab481610a99565b82525050565b600060a0820190508181036000830152610ad48188610a60565b9050610ae360208301876109ac565b610af06040830186610aab565b610afd6060830185610982565b610b0a60808301846109ac565b9695505050505050565b600080fd5b600080fd5b7f4e487b7100000000000000000000000000000000000000000000000000000000600052604160045260246000fd5b610b5682610a4f565b810181811067ffffffffffffffff82111715610b7557610b74610b1e565b5b80604052505050565b6000610b88610874565b9050610b948282610b4d565b919050565b600067ffffffffffffffff821115610bb457610bb3610b1e565b5b610bbd82610a4f565b9050602081019050919050565b82818337600083830152505050565b6000610bec610be784610b99565b610b7e565b905082815260208101848484011115610c0857610c07610b19565b5b610c13848285610bca565b509392505050565b600082601f830112610c3057610c2f610b14565b5b8135610c40848260208601610bd9565b91505092915050565b610c5281610a99565b8114610c5d57600080fd5b50565b600081359050610c6f81610c49565b92915050565b600080600060608486031215610c8e57610c8d61087e565b5b600084013567ffffffffffffffff811115610cac57610cab610883565b5b610cb886828701610c1b565b9350506020610cc9868287016108a9565b9250506040610cda86828701610c60565b9150509250925092565b7f4e487b7100000000000000000000000000000000000000000000000000000000600052603260045260246000fd5b7f4e487b7100000000000000000000000000000000000000000000000000000000600052601260045260246000fd5b7f4e487b7100000000000000000000000000000000000000000000000000000000600052601160045260246000fd5b6000610d7c82610888565b9150610d8783610888565b925082610d9757610d96610d13565b5b828204905092915050565b7f4e487b7100000000000000000000000000000000000000000000000000000000600052602260045260246000fd5b60006002820490506001821680610de957607f821691505b60208210811415610dfd57610dfc610da2565b5b50919050565b6000610e0e82610888565b91507fffffffffffffffffffffffffffffffffffffffffffffffffffffffffffffffff821415610e4157610e40610d42565b5b60018201905091905056fea26469706673582212209144b200a2a4558d42c9ef82f36f91e6aee465d4ef483b35b4d102f0429baa9364736f6c63430008090033a26469706673582212202f573021206159232eb226b2bd606cf5cacab8cb9e9d1074165babf6b563733164736f6c63430008090033","opcodes":"PUSH1 0x80 PUSH1 0x40 MSTORE CALLVALUE DUP1 ISZERO PUSH2 0x10 JUMPI PUSH1 0x0 DUP1 REVERT JUMPDEST POP PUSH2 0x1446 DUP1 PUSH2 0x20 PUSH1 0x0 CODECOPY PUSH1 0x0 RETURN INVALID PUSH1 0x80 PUSH1 0x40 MSTORE CALLVALUE DUP1 ISZERO PUSH2 0x10 JUMPI PUSH1 0x0 DUP1 REVERT JUMPDEST POP PUSH1 0x4 CALLDATASIZE LT PUSH2 0x41 JUMPI PUSH1 0x0 CALLDATALOAD PUSH1 0xE0 SHR DUP1 PUSH4 0x4ACB9D4F EQ PUSH2 0x46 JUMPI DUP1 PUSH4 0x4AF9EDFE EQ PUSH2 0x64 JUMPI DUP1 PUSH4 0xA3303A75 EQ PUSH2 0x94 JUMPI JUMPDEST PUSH1 0x0 DUP1 REVERT JUMPDEST PUSH2 0x4E PUSH2 0xB0 JUMP JUMPDEST PUSH1 0x40 MLOAD PUSH2 0x5B SWAP2 SWAP1 PUSH2 0x315 JUMP JUMPDEST PUSH1 0x40 MLOAD DUP1 SWAP2 SUB SWAP1 RETURN JUMPDEST PUSH2 0x7E PUSH1 0x4 DUP1 CALLDATASIZE SUB DUP2 ADD SWAP1 PUSH2 0x79 SWAP2 SWAP1 PUSH2 0x372 JUMP JUMPDEST PUSH2 0x13E JUMP JUMPDEST PUSH1 0x40 MLOAD PUSH2 0x8B SWAP2 SWAP1 PUSH2 0x3AE JUMP JUMPDEST PUSH1 0x40 MLOAD DUP1 SWAP2 SUB SWAP1 RETURN JUMPDEST PUSH2 0xAE PUSH1 0x4 DUP1 CALLDATASIZE SUB DUP2 ADD SWAP1 PUSH2 0xA9 SWAP2 SWAP1 PUSH2 0x372 JUMP JUMPDEST PUSH2 0x17D JUMP JUMPDEST STOP JUMPDEST PUSH1 0x60 PUSH1 0x0 DUP1 SLOAD DUP1 PUSH1 0x20 MUL PUSH1 0x20 ADD PUSH1 0x40 MLOAD SWAP1 DUP2 ADD PUSH1 0x40 MSTORE DUP1 SWAP3 SWAP2 SWAP1 DUP2 DUP2 MSTORE PUSH1 0x20 ADD DUP3 DUP1 SLOAD DUP1 ISZERO PUSH2 0x134 JUMPI PUSH1 0x20 MUL DUP3 ADD SWAP2 SWAP1 PUSH1 0x0 MSTORE PUSH1 0x20 PUSH1 0x0 KECCAK256 SWAP1 JUMPDEST DUP2 PUSH1 0x0 SWAP1 SLOAD SWAP1 PUSH2 0x100 EXP SWAP1 DIV PUSH20 0xFFFFFFFFFFFFFFFFFFFFFFFFFFFFFFFFFFFFFFFF AND PUSH20 0xFFFFFFFFFFFFFFFFFFFFFFFFFFFFFFFFFFFFFFFF AND DUP2 MSTORE PUSH1 0x20 ADD SWAP1 PUSH1 0x1 ADD SWAP1 DUP1 DUP4 GT PUSH2 0xEA JUMPI JUMPDEST POP POP POP POP POP SWAP1 POP SWAP1 JUMP JUMPDEST PUSH1 0x0 DUP2 DUP2 SLOAD DUP2 LT PUSH2 0x14E JUMPI PUSH1 0x0 DUP1 REVERT JUMPDEST SWAP1 PUSH1 0x0 MSTORE PUSH1 0x20 PUSH1 0x0 KECCAK256 ADD PUSH1 0x0 SWAP2 POP SLOAD SWAP1 PUSH2 0x100 EXP SWAP1 DIV PUSH20 0xFFFFFFFFFFFFFFFFFFFFFFFFFFFFFFFFFFFFFFFF AND DUP2 JUMP JUMPDEST PUSH1 0x0 DUP2 CALLER PUSH1 0x40 MLOAD PUSH2 0x18D SWAP1 PUSH2 0x218 JUMP JUMPDEST PUSH2 0x198 SWAP3 SWAP2 SWAP1 PUSH2 0x3D8 JUMP JUMPDEST PUSH1 0x40 MLOAD DUP1 SWAP2 SUB SWAP1 PUSH1 0x0 CREATE DUP1 ISZERO DUP1 ISZERO PUSH2 0x1B4 JUMPI RETURNDATASIZE PUSH1 0x0 DUP1 RETURNDATACOPY RETURNDATASIZE PUSH1 0x0 REVERT JUMPDEST POP SWAP1 DUP1 PUSH1 0x1 DUP2 SLOAD ADD DUP1 DUP3 SSTORE DUP1 SWAP2 POP POP PUSH1 0x1 SWAP1 SUB SWAP1 PUSH1 0x0 MSTORE PUSH1 0x20 PUSH1 0x0 KECCAK256 ADD PUSH1 0x0 SWAP1 SWAP2 SWAP1 SWAP2 SWAP1 SWAP2 PUSH2 0x100 EXP DUP2 SLOAD DUP2 PUSH20 0xFFFFFFFFFFFFFFFFFFFFFFFFFFFFFFFFFFFFFFFF MUL NOT AND SWAP1 DUP4 PUSH20 0xFFFFFFFFFFFFFFFFFFFFFFFFFFFFFFFFFFFFFFFF AND MUL OR SWAP1 SSTORE POP POP JUMP JUMPDEST PUSH2 0x100F DUP1 PUSH2 0x402 DUP4 CODECOPY ADD SWAP1 JUMP JUMPDEST PUSH1 0x0 DUP2 MLOAD SWAP1 POP SWAP2 SWAP1 POP JUMP JUMPDEST PUSH1 0x0 DUP3 DUP3 MSTORE PUSH1 0x20 DUP3 ADD SWAP1 POP SWAP3 SWAP2 POP POP JUMP JUMPDEST PUSH1 0x0 DUP2 SWAP1 POP PUSH1 0x20 DUP3 ADD SWAP1 POP SWAP2 SWAP1 POP JUMP JUMPDEST PUSH1 0x0 PUSH20 0xFFFFFFFFFFFFFFFFFFFFFFFFFFFFFFFFFFFFFFFF DUP3 AND SWAP1 POP SWAP2 SWAP1 POP JUMP JUMPDEST PUSH1 0x0 PUSH2 0x27C DUP3 PUSH2 0x251 JUMP JUMPDEST SWAP1 POP SWAP2 SWAP1 POP JUMP JUMPDEST PUSH2 0x28C DUP2 PUSH2 0x271 JUMP JUMPDEST DUP3 MSTORE POP POP JUMP JUMPDEST PUSH1 0x0 PUSH2 0x29E DUP4 DUP4 PUSH2 0x283 JUMP JUMPDEST PUSH1 0x20 DUP4 ADD SWAP1 POP SWAP3 SWAP2 POP POP JUMP JUMPDEST PUSH1 0x0 PUSH1 0x20 DUP3 ADD SWAP1 POP SWAP2 SWAP1 POP JUMP JUMPDEST PUSH1 0x0 PUSH2 0x2C2 DUP3 PUSH2 0x225 JUMP JUMPDEST PUSH2 0x2CC DUP2 DUP6 PUSH2 0x230 JUMP JUMPDEST SWAP4 POP PUSH2 0x2D7 DUP4 PUSH2 0x241 JUMP JUMPDEST DUP1 PUSH1 0x0 JUMPDEST DUP4 DUP2 LT ISZERO PUSH2 0x308 JUMPI DUP2 MLOAD PUSH2 0x2EF DUP9 DUP3 PUSH2 0x292 JUMP JUMPDEST SWAP8 POP PUSH2 0x2FA DUP4 PUSH2 0x2AA JUMP JUMPDEST SWAP3 POP POP PUSH1 0x1 DUP2 ADD SWAP1 POP PUSH2 0x2DB JUMP JUMPDEST POP DUP6 SWAP4 POP POP POP POP SWAP3 SWAP2 POP POP JUMP JUMPDEST PUSH1 0x0 PUSH1 0x20 DUP3 ADD SWAP1 POP DUP2 DUP2 SUB PUSH1 0x0 DUP4 ADD MSTORE PUSH2 0x32F DUP2 DUP5 PUSH2 0x2B7 JUMP JUMPDEST SWAP1 POP SWAP3 SWAP2 POP POP JUMP JUMPDEST PUSH1 0x0 DUP1 REVERT JUMPDEST PUSH1 0x0 DUP2 SWAP1 POP SWAP2 SWAP1 POP JUMP JUMPDEST PUSH2 0x34F DUP2 PUSH2 0x33C JUMP JUMPDEST DUP2 EQ PUSH2 0x35A JUMPI PUSH1 0x0 DUP1 REVERT JUMPDEST POP JUMP JUMPDEST PUSH1 0x0 DUP2 CALLDATALOAD SWAP1 POP PUSH2 0x36C DUP2 PUSH2 0x346 JUMP JUMPDEST SWAP3 SWAP2 POP POP JUMP JUMPDEST PUSH1 0x0 PUSH1 0x20 DUP3 DUP5 SUB SLT ISZERO PUSH2 0x388 JUMPI PUSH2 0x387 PUSH2 0x337 JUMP JUMPDEST JUMPDEST PUSH1 0x0 PUSH2 0x396 DUP5 DUP3 DUP6 ADD PUSH2 0x35D JUMP JUMPDEST SWAP2 POP POP SWAP3 SWAP2 POP POP JUMP JUMPDEST PUSH2 0x3A8 DUP2 PUSH2 0x271 JUMP JUMPDEST DUP3 MSTORE POP POP JUMP JUMPDEST PUSH1 0x0 PUSH1 0x20 DUP3 ADD SWAP1 POP PUSH2 0x3C3 PUSH1 0x0 DUP4 ADD DUP5 PUSH2 0x39F JUMP JUMPDEST SWAP3 SWAP2 POP POP JUMP JUMPDEST PUSH2 0x3D2 DUP2 PUSH2 0x33C JUMP JUMPDEST DUP3 MSTORE POP POP JUMP JUMPDEST PUSH1 0x0 PUSH1 0x40 DUP3 ADD SWAP1 POP PUSH2 0x3ED PUSH1 0x0 DUP4 ADD DUP6 PUSH2 0x3C9 JUMP JUMPDEST PUSH2 0x3FA PUSH1 0x20 DUP4 ADD DUP5 PUSH2 0x39F JUMP JUMPDEST SWAP4 SWAP3 POP POP POP JUMP INVALID PUSH1 0x80 PUSH1 0x40 MSTORE PUSH1 0x0 PUSH1 0x4 SSTORE PUSH1 0x0 PUSH1 0x5 SSTORE CALLVALUE DUP1 ISZERO PUSH3 0x1B JUMPI PUSH1 0x0 DUP1 REVERT JUMPDEST POP PUSH1 0x40 MLOAD PUSH3 0x100F CODESIZE SUB DUP1 PUSH3 0x100F DUP4 CODECOPY DUP2 DUP2 ADD PUSH1 0x40 MSTORE DUP2 ADD SWAP1 PUSH3 0x41 SWAP2 SWAP1 PUSH3 0x136 JUMP JUMPDEST DUP1 PUSH1 0x1 PUSH1 0x0 PUSH2 0x100 EXP DUP2 SLOAD DUP2 PUSH20 0xFFFFFFFFFFFFFFFFFFFFFFFFFFFFFFFFFFFFFFFF MUL NOT AND SWAP1 DUP4 PUSH20 0xFFFFFFFFFFFFFFFFFFFFFFFFFFFFFFFFFFFFFFFF AND MUL OR SWAP1 SSTORE POP DUP2 PUSH1 0x2 DUP2 SWAP1 SSTORE POP POP POP PUSH3 0x17D JUMP JUMPDEST PUSH1 0x0 DUP1 REVERT JUMPDEST PUSH1 0x0 DUP2 SWAP1 POP SWAP2 SWAP1 POP JUMP JUMPDEST PUSH3 0xAB DUP2 PUSH3 0x96 JUMP JUMPDEST DUP2 EQ PUSH3 0xB7 JUMPI PUSH1 0x0 DUP1 REVERT JUMPDEST POP JUMP JUMPDEST PUSH1 0x0 DUP2 MLOAD SWAP1 POP PUSH3 0xCB DUP2 PUSH3 0xA0 JUMP JUMPDEST SWAP3 SWAP2 POP POP JUMP JUMPDEST PUSH1 0x0 PUSH20 0xFFFFFFFFFFFFFFFFFFFFFFFFFFFFFFFFFFFFFFFF DUP3 AND SWAP1 POP SWAP2 SWAP1 POP JUMP JUMPDEST PUSH1 0x0 PUSH3 0xFE DUP3 PUSH3 0xD1 JUMP JUMPDEST SWAP1 POP SWAP2 SWAP1 POP JUMP JUMPDEST PUSH3 0x110 DUP2 PUSH3 0xF1 JUMP JUMPDEST DUP2 EQ PUSH3 0x11C JUMPI PUSH1 0x0 DUP1 REVERT JUMPDEST POP JUMP JUMPDEST PUSH1 0x0 DUP2 MLOAD SWAP1 POP PUSH3 0x130 DUP2 PUSH3 0x105 JUMP JUMPDEST SWAP3 SWAP2 POP POP JUMP JUMPDEST PUSH1 0x0 DUP1 PUSH1 0x40 DUP4 DUP6 SUB SLT ISZERO PUSH3 0x150 JUMPI PUSH3 0x14F PUSH3 0x91 JUMP JUMPDEST JUMPDEST PUSH1 0x0 PUSH3 0x160 DUP6 DUP3 DUP7 ADD PUSH3 0xBA JUMP JUMPDEST SWAP3 POP POP PUSH1 0x20 PUSH3 0x173 DUP6 DUP3 DUP7 ADD PUSH3 0x11F JUMP JUMPDEST SWAP2 POP POP SWAP3 POP SWAP3 SWAP1 POP JUMP JUMPDEST PUSH2 0xE82 DUP1 PUSH3 0x18D PUSH1 0x0 CODECOPY PUSH1 0x0 RETURN INVALID PUSH1 0x80 PUSH1 0x40 MSTORE PUSH1 0x4 CALLDATASIZE LT PUSH2 0x91 JUMPI PUSH1 0x0 CALLDATALOAD PUSH1 0xE0 SHR DUP1 PUSH4 0x82FDE093 GT PUSH2 0x59 JUMPI DUP1 PUSH4 0x82FDE093 EQ PUSH2 0x193 JUMPI DUP1 PUSH4 0x8A9CFD55 EQ PUSH2 0x1BE JUMPI DUP1 PUSH4 0x937E09B1 EQ PUSH2 0x1E7 JUMPI DUP1 PUSH4 0xD7BB99BA EQ PUSH2 0x212 JUMPI DUP1 PUSH4 0xD7D1BBDB EQ PUSH2 0x21C JUMPI PUSH2 0x91 JUMP JUMPDEST DUP1 PUSH4 0x3441006 EQ PUSH2 0x96 JUMPI DUP1 PUSH4 0xA144391 EQ PUSH2 0xBF JUMPI DUP1 PUSH4 0x23DA254E EQ PUSH2 0xFC JUMPI DUP1 PUSH4 0x481C6A75 EQ PUSH2 0x127 JUMPI DUP1 PUSH4 0x81D12C58 EQ PUSH2 0x152 JUMPI JUMPDEST PUSH1 0x0 DUP1 REVERT JUMPDEST CALLVALUE DUP1 ISZERO PUSH2 0xA2 JUMPI PUSH1 0x0 DUP1 REVERT JUMPDEST POP PUSH2 0xBD PUSH1 0x4 DUP1 CALLDATASIZE SUB DUP2 ADD SWAP1 PUSH2 0xB8 SWAP2 SWAP1 PUSH2 0x8BE JUMP JUMPDEST PUSH2 0x245 JUMP JUMPDEST STOP JUMPDEST CALLVALUE DUP1 ISZERO PUSH2 0xCB JUMPI PUSH1 0x0 DUP1 REVERT JUMPDEST POP PUSH2 0xE6 PUSH1 0x4 DUP1 CALLDATASIZE SUB DUP2 ADD SWAP1 PUSH2 0xE1 SWAP2 SWAP1 PUSH2 0x949 JUMP JUMPDEST PUSH2 0x38E JUMP JUMPDEST PUSH1 0x40 MLOAD PUSH2 0xF3 SWAP2 SWAP1 PUSH2 0x991 JUMP JUMPDEST PUSH1 0x40 MLOAD DUP1 SWAP2 SUB SWAP1 RETURN JUMPDEST CALLVALUE DUP1 ISZERO PUSH2 0x108 JUMPI PUSH1 0x0 DUP1 REVERT JUMPDEST POP PUSH2 0x111 PUSH2 0x3AE JUMP JUMPDEST PUSH1 0x40 MLOAD PUSH2 0x11E SWAP2 SWAP1 PUSH2 0x9BB JUMP JUMPDEST PUSH1 0x40 MLOAD DUP1 SWAP2 SUB SWAP1 RETURN JUMPDEST CALLVALUE DUP1 ISZERO PUSH2 0x133 JUMPI PUSH1 0x0 DUP1 REVERT JUMPDEST POP PUSH2 0x13C PUSH2 0x3B4 JUMP JUMPDEST PUSH1 0x40 MLOAD PUSH2 0x149 SWAP2 SWAP1 PUSH2 0x9E5 JUMP JUMPDEST PUSH1 0x40 MLOAD DUP1 SWAP2 SUB SWAP1 RETURN JUMPDEST CALLVALUE DUP1 ISZERO PUSH2 0x15E JUMPI PUSH1 0x0 DUP1 REVERT JUMPDEST POP PUSH2 0x179 PUSH1 0x4 DUP1 CALLDATASIZE SUB DUP2 ADD SWAP1 PUSH2 0x174 SWAP2 SWAP1 PUSH2 0x8BE JUMP JUMPDEST PUSH2 0x3DA JUMP JUMPDEST PUSH1 0x40 MLOAD PUSH2 0x18A SWAP6 SWAP5 SWAP4 SWAP3 SWAP2 SWAP1 PUSH2 0xABA JUMP JUMPDEST PUSH1 0x40 MLOAD DUP1 SWAP2 SUB SWAP1 RETURN JUMPDEST CALLVALUE DUP1 ISZERO PUSH2 0x19F JUMPI PUSH1 0x0 DUP1 REVERT JUMPDEST POP PUSH2 0x1A8 PUSH2 0x4D5 JUMP JUMPDEST PUSH1 0x40 MLOAD PUSH2 0x1B5 SWAP2 SWAP1 PUSH2 0x9BB JUMP JUMPDEST PUSH1 0x40 MLOAD DUP1 SWAP2 SUB SWAP1 RETURN JUMPDEST CALLVALUE DUP1 ISZERO PUSH2 0x1CA JUMPI PUSH1 0x0 DUP1 REVERT JUMPDEST POP PUSH2 0x1E5 PUSH1 0x4 DUP1 CALLDATASIZE SUB DUP2 ADD SWAP1 PUSH2 0x1E0 SWAP2 SWAP1 PUSH2 0xC75 JUMP JUMPDEST PUSH2 0x4DB JUMP JUMPDEST STOP JUMPDEST CALLVALUE DUP1 ISZERO PUSH2 0x1F3 JUMPI PUSH1 0x0 DUP1 REVERT JUMPDEST POP PUSH2 0x1FC PUSH2 0x5F7 JUMP JUMPDEST PUSH1 0x40 MLOAD PUSH2 0x209 SWAP2 SWAP1 PUSH2 0x9BB JUMP JUMPDEST PUSH1 0x40 MLOAD DUP1 SWAP2 SUB SWAP1 RETURN JUMPDEST PUSH2 0x21A PUSH2 0x5FD JUMP JUMPDEST STOP JUMPDEST CALLVALUE DUP1 ISZERO PUSH2 0x228 JUMPI PUSH1 0x0 DUP1 REVERT JUMPDEST POP PUSH2 0x243 PUSH1 0x4 DUP1 CALLDATASIZE SUB DUP2 ADD SWAP1 PUSH2 0x23E SWAP2 SWAP1 PUSH2 0x8BE JUMP JUMPDEST PUSH2 0x685 JUMP JUMPDEST STOP JUMPDEST PUSH1 0x1 PUSH1 0x0 SWAP1 SLOAD SWAP1 PUSH2 0x100 EXP SWAP1 DIV PUSH20 0xFFFFFFFFFFFFFFFFFFFFFFFFFFFFFFFFFFFFFFFF AND PUSH20 0xFFFFFFFFFFFFFFFFFFFFFFFFFFFFFFFFFFFFFFFF AND CALLER PUSH20 0xFFFFFFFFFFFFFFFFFFFFFFFFFFFFFFFFFFFFFFFF AND EQ PUSH2 0x29F JUMPI PUSH1 0x0 DUP1 REVERT JUMPDEST PUSH1 0x0 DUP1 DUP3 DUP2 SLOAD DUP2 LT PUSH2 0x2B4 JUMPI PUSH2 0x2B3 PUSH2 0xCE4 JUMP JUMPDEST JUMPDEST SWAP1 PUSH1 0x0 MSTORE PUSH1 0x20 PUSH1 0x0 KECCAK256 SWAP1 PUSH1 0x5 MUL ADD SWAP1 POP PUSH1 0x2 PUSH1 0x4 SLOAD PUSH2 0x2D3 SWAP2 SWAP1 PUSH2 0xD71 JUMP JUMPDEST DUP2 PUSH1 0x3 ADD SLOAD GT PUSH2 0x2E2 JUMPI PUSH1 0x0 DUP1 REVERT JUMPDEST DUP1 PUSH1 0x2 ADD PUSH1 0x14 SWAP1 SLOAD SWAP1 PUSH2 0x100 EXP SWAP1 DIV PUSH1 0xFF AND ISZERO PUSH2 0x2FE JUMPI PUSH1 0x0 DUP1 REVERT JUMPDEST DUP1 PUSH1 0x2 ADD PUSH1 0x0 SWAP1 SLOAD SWAP1 PUSH2 0x100 EXP SWAP1 DIV PUSH20 0xFFFFFFFFFFFFFFFFFFFFFFFFFFFFFFFFFFFFFFFF AND PUSH20 0xFFFFFFFFFFFFFFFFFFFFFFFFFFFFFFFFFFFFFFFF AND PUSH2 0x8FC DUP3 PUSH1 0x1 ADD SLOAD SWAP1 DUP2 ISZERO MUL SWAP1 PUSH1 0x40 MLOAD PUSH1 0x0 PUSH1 0x40 MLOAD DUP1 DUP4 SUB DUP2 DUP6 DUP9 DUP9 CALL SWAP4 POP POP POP POP ISZERO DUP1 ISZERO PUSH2 0x36C JUMPI RETURNDATASIZE PUSH1 0x0 DUP1 RETURNDATACOPY RETURNDATASIZE PUSH1 0x0 REVERT JUMPDEST POP PUSH1 0x1 DUP2 PUSH1 0x2 ADD PUSH1 0x14 PUSH2 0x100 EXP DUP2 SLOAD DUP2 PUSH1 0xFF MUL NOT AND SWAP1 DUP4 ISZERO ISZERO MUL OR SWAP1 SSTORE POP POP POP JUMP JUMPDEST PUSH1 0x3 PUSH1 0x20 MSTORE DUP1 PUSH1 0x0 MSTORE PUSH1 0x40 PUSH1 0x0 KECCAK256 PUSH1 0x0 SWAP2 POP SLOAD SWAP1 PUSH2 0x100 EXP SWAP1 DIV PUSH1 0xFF AND DUP2 JUMP JUMPDEST PUSH1 0x5 SLOAD DUP2 JUMP JUMPDEST PUSH1 0x1 PUSH1 0x0 SWAP1 SLOAD SWAP1 PUSH2 0x100 EXP SWAP1 DIV PUSH20 0xFFFFFFFFFFFFFFFFFFFFFFFFFFFFFFFFFFFFFFFF AND DUP2 JUMP JUMPDEST PUSH1 0x0 DUP2 DUP2 SLOAD DUP2 LT PUSH2 0x3EA JUMPI PUSH1 0x0 DUP1 REVERT JUMPDEST SWAP1 PUSH1 0x0 MSTORE PUSH1 0x20 PUSH1 0x0 KECCAK256 SWAP1 PUSH1 0x5 MUL ADD PUSH1 0x0 SWAP2 POP SWAP1 POP DUP1 PUSH1 0x0 ADD DUP1 SLOAD PUSH2 0x40D SWAP1 PUSH2 0xDD1 JUMP JUMPDEST DUP1 PUSH1 0x1F ADD PUSH1 0x20 DUP1 SWAP2 DIV MUL PUSH1 0x20 ADD PUSH1 0x40 MLOAD SWAP1 DUP2 ADD PUSH1 0x40 MSTORE DUP1 SWAP3 SWAP2 SWAP1 DUP2 DUP2 MSTORE PUSH1 0x20 ADD DUP3 DUP1 SLOAD PUSH2 0x439 SWAP1 PUSH2 0xDD1 JUMP JUMPDEST DUP1 ISZERO PUSH2 0x486 JUMPI DUP1 PUSH1 0x1F LT PUSH2 0x45B JUMPI PUSH2 0x100 DUP1 DUP4 SLOAD DIV MUL DUP4 MSTORE SWAP2 PUSH1 0x20 ADD SWAP2 PUSH2 0x486 JUMP JUMPDEST DUP3 ADD SWAP2 SWAP1 PUSH1 0x0 MSTORE PUSH1 0x20 PUSH1 0x0 KECCAK256 SWAP1 JUMPDEST DUP2 SLOAD DUP2 MSTORE SWAP1 PUSH1 0x1 ADD SWAP1 PUSH1 0x20 ADD DUP1 DUP4 GT PUSH2 0x469 JUMPI DUP3 SWAP1 SUB PUSH1 0x1F AND DUP3 ADD SWAP2 JUMPDEST POP POP POP POP POP SWAP1 DUP1 PUSH1 0x1 ADD SLOAD SWAP1 DUP1 PUSH1 0x2 ADD PUSH1 0x0 SWAP1 SLOAD SWAP1 PUSH2 0x100 EXP SWAP1 DIV PUSH20 0xFFFFFFFFFFFFFFFFFFFFFFFFFFFFFFFFFFFFFFFF AND SWAP1 DUP1 PUSH1 0x2 ADD PUSH1 0x14 SWAP1 SLOAD SWAP1 PUSH2 0x100 EXP SWAP1 DIV PUSH1 0xFF AND SWAP1 DUP1 PUSH1 0x3 ADD SLOAD SWAP1 POP DUP6 JUMP JUMPDEST PUSH1 0x4 SLOAD DUP2 JUMP JUMPDEST PUSH1 0x1 PUSH1 0x0 SWAP1 SLOAD SWAP1 PUSH2 0x100 EXP SWAP1 DIV PUSH20 0xFFFFFFFFFFFFFFFFFFFFFFFFFFFFFFFFFFFFFFFF AND PUSH20 0xFFFFFFFFFFFFFFFFFFFFFFFFFFFFFFFFFFFFFFFF AND CALLER PUSH20 0xFFFFFFFFFFFFFFFFFFFFFFFFFFFFFFFFFFFFFFFF AND EQ PUSH2 0x535 JUMPI PUSH1 0x0 DUP1 REVERT JUMPDEST SELFBALANCE DUP3 GT ISZERO PUSH2 0x542 JUMPI PUSH1 0x0 DUP1 REVERT JUMPDEST PUSH1 0x0 DUP1 PUSH1 0x1 DUP2 PUSH1 0x1 DUP2 SLOAD ADD DUP1 DUP3 SSTORE DUP1 SWAP2 POP POP SUB SWAP1 PUSH1 0x0 MSTORE PUSH1 0x20 PUSH1 0x0 KECCAK256 SWAP1 PUSH1 0x5 MUL ADD SWAP1 POP DUP4 DUP2 PUSH1 0x0 ADD SWAP1 DUP1 MLOAD SWAP1 PUSH1 0x20 ADD SWAP1 PUSH2 0x57D SWAP3 SWAP2 SWAP1 PUSH2 0x7D1 JUMP JUMPDEST POP DUP3 DUP2 PUSH1 0x1 ADD DUP2 SWAP1 SSTORE POP DUP2 DUP2 PUSH1 0x2 ADD PUSH1 0x0 PUSH2 0x100 EXP DUP2 SLOAD DUP2 PUSH20 0xFFFFFFFFFFFFFFFFFFFFFFFFFFFFFFFFFFFFFFFF MUL NOT AND SWAP1 DUP4 PUSH20 0xFFFFFFFFFFFFFFFFFFFFFFFFFFFFFFFFFFFFFFFF AND MUL OR SWAP1 SSTORE POP PUSH1 0x0 DUP2 PUSH1 0x2 ADD PUSH1 0x14 PUSH2 0x100 EXP DUP2 SLOAD DUP2 PUSH1 0xFF MUL NOT AND SWAP1 DUP4 ISZERO ISZERO MUL OR SWAP1 SSTORE POP PUSH1 0x0 DUP2 PUSH1 0x3 ADD DUP2 SWAP1 SSTORE POP POP POP POP POP JUMP JUMPDEST PUSH1 0x2 SLOAD DUP2 JUMP JUMPDEST PUSH1 0x2 SLOAD CALLVALUE LT ISZERO PUSH2 0x60C JUMPI PUSH1 0x0 DUP1 REVERT JUMPDEST PUSH1 0x1 PUSH1 0x3 PUSH1 0x0 CALLER PUSH20 0xFFFFFFFFFFFFFFFFFFFFFFFFFFFFFFFFFFFFFFFF AND PUSH20 0xFFFFFFFFFFFFFFFFFFFFFFFFFFFFFFFFFFFFFFFF AND DUP2 MSTORE PUSH1 0x20 ADD SWAP1 DUP2 MSTORE PUSH1 0x20 ADD PUSH1 0x0 KECCAK256 PUSH1 0x0 PUSH2 0x100 EXP DUP2 SLOAD DUP2 PUSH1 0xFF MUL NOT AND SWAP1 DUP4 ISZERO ISZERO MUL OR SWAP1 SSTORE POP PUSH1 0x4 PUSH1 0x0 DUP2 SLOAD DUP1 SWAP3 SWAP2 SWAP1 PUSH2 0x677 SWAP1 PUSH2 0xE03 JUMP JUMPDEST SWAP2 SWAP1 POP SSTORE POP SELFBALANCE PUSH1 0x5 DUP2 SWAP1 SSTORE POP JUMP JUMPDEST PUSH1 0x0 DUP1 DUP3 DUP2 SLOAD DUP2 LT PUSH2 0x69A JUMPI PUSH2 0x699 PUSH2 0xCE4 JUMP JUMPDEST JUMPDEST SWAP1 PUSH1 0x0 MSTORE PUSH1 0x20 PUSH1 0x0 KECCAK256 SWAP1 PUSH1 0x5 MUL ADD SWAP1 POP PUSH1 0x3 PUSH1 0x0 CALLER PUSH20 0xFFFFFFFFFFFFFFFFFFFFFFFFFFFFFFFFFFFFFFFF AND PUSH20 0xFFFFFFFFFFFFFFFFFFFFFFFFFFFFFFFFFFFFFFFF AND DUP2 MSTORE PUSH1 0x20 ADD SWAP1 DUP2 MSTORE PUSH1 0x20 ADD PUSH1 0x0 KECCAK256 PUSH1 0x0 SWAP1 SLOAD SWAP1 PUSH2 0x100 EXP SWAP1 DIV PUSH1 0xFF AND PUSH2 0x700 JUMPI PUSH1 0x0 DUP1 REVERT JUMPDEST DUP1 PUSH1 0x4 ADD PUSH1 0x0 CALLER PUSH20 0xFFFFFFFFFFFFFFFFFFFFFFFFFFFFFFFFFFFFFFFF AND PUSH20 0xFFFFFFFFFFFFFFFFFFFFFFFFFFFFFFFFFFFFFFFF AND DUP2 MSTORE PUSH1 0x20 ADD SWAP1 DUP2 MSTORE PUSH1 0x20 ADD PUSH1 0x0 KECCAK256 PUSH1 0x0 SWAP1 SLOAD SWAP1 PUSH2 0x100 EXP SWAP1 DIV PUSH1 0xFF AND ISZERO PUSH2 0x759 JUMPI PUSH1 0x0 DUP1 REVERT JUMPDEST DUP1 PUSH1 0x3 ADD PUSH1 0x0 DUP2 SLOAD DUP1 SWAP3 SWAP2 SWAP1 PUSH2 0x76E SWAP1 PUSH2 0xE03 JUMP JUMPDEST SWAP2 SWAP1 POP SSTORE POP PUSH1 0x1 DUP2 PUSH1 0x4 ADD PUSH1 0x0 CALLER PUSH20 0xFFFFFFFFFFFFFFFFFFFFFFFFFFFFFFFFFFFFFFFF AND PUSH20 0xFFFFFFFFFFFFFFFFFFFFFFFFFFFFFFFFFFFFFFFF AND DUP2 MSTORE PUSH1 0x20 ADD SWAP1 DUP2 MSTORE PUSH1 0x20 ADD PUSH1 0x0 KECCAK256 PUSH1 0x0 PUSH2 0x100 EXP DUP2 SLOAD DUP2 PUSH1 0xFF MUL NOT AND SWAP1 DUP4 ISZERO ISZERO MUL OR SWAP1 SSTORE POP POP POP JUMP JUMPDEST DUP3 DUP1 SLOAD PUSH2 0x7DD SWAP1 PUSH2 0xDD1 JUMP JUMPDEST SWAP1 PUSH1 0x0 MSTORE PUSH1 0x20 PUSH1 0x0 KECCAK256 SWAP1 PUSH1 0x1F ADD PUSH1 0x20 SWAP1 DIV DUP2 ADD SWAP3 DUP3 PUSH2 0x7FF JUMPI PUSH1 0x0 DUP6 SSTORE PUSH2 0x846 JUMP JUMPDEST DUP3 PUSH1 0x1F LT PUSH2 0x818 JUMPI DUP1 MLOAD PUSH1 0xFF NOT AND DUP4 DUP1 ADD OR DUP6 SSTORE PUSH2 0x846 JUMP JUMPDEST DUP3 DUP1 ADD PUSH1 0x1 ADD DUP6 SSTORE DUP3 ISZERO PUSH2 0x846 JUMPI SWAP2 DUP3 ADD JUMPDEST DUP3 DUP2 GT ISZERO PUSH2 0x845 JUMPI DUP3 MLOAD DUP3 SSTORE SWAP2 PUSH1 0x20 ADD SWAP2 SWAP1 PUSH1 0x1 ADD SWAP1 PUSH2 0x82A JUMP JUMPDEST JUMPDEST POP SWAP1 POP PUSH2 0x853 SWAP2 SWAP1 PUSH2 0x857 JUMP JUMPDEST POP SWAP1 JUMP JUMPDEST JUMPDEST DUP1 DUP3 GT ISZERO PUSH2 0x870 JUMPI PUSH1 0x0 DUP2 PUSH1 0x0 SWAP1 SSTORE POP PUSH1 0x1 ADD PUSH2 0x858 JUMP JUMPDEST POP SWAP1 JUMP JUMPDEST PUSH1 0x0 PUSH1 0x40 MLOAD SWAP1 POP SWAP1 JUMP JUMPDEST PUSH1 0x0 DUP1 REVERT JUMPDEST PUSH1 0x0 DUP1 REVERT JUMPDEST PUSH1 0x0 DUP2 SWAP1 POP SWAP2 SWAP1 POP JUMP JUMPDEST PUSH2 0x89B DUP2 PUSH2 0x888 JUMP JUMPDEST DUP2 EQ PUSH2 0x8A6 JUMPI PUSH1 0x0 DUP1 REVERT JUMPDEST POP JUMP JUMPDEST PUSH1 0x0 DUP2 CALLDATALOAD SWAP1 POP PUSH2 0x8B8 DUP2 PUSH2 0x892 JUMP JUMPDEST SWAP3 SWAP2 POP POP JUMP JUMPDEST PUSH1 0x0 PUSH1 0x20 DUP3 DUP5 SUB SLT ISZERO PUSH2 0x8D4 JUMPI PUSH2 0x8D3 PUSH2 0x87E JUMP JUMPDEST JUMPDEST PUSH1 0x0 PUSH2 0x8E2 DUP5 DUP3 DUP6 ADD PUSH2 0x8A9 JUMP JUMPDEST SWAP2 POP POP SWAP3 SWAP2 POP POP JUMP JUMPDEST PUSH1 0x0 PUSH20 0xFFFFFFFFFFFFFFFFFFFFFFFFFFFFFFFFFFFFFFFF DUP3 AND SWAP1 POP SWAP2 SWAP1 POP JUMP JUMPDEST PUSH1 0x0 PUSH2 0x916 DUP3 PUSH2 0x8EB JUMP JUMPDEST SWAP1 POP SWAP2 SWAP1 POP JUMP JUMPDEST PUSH2 0x926 DUP2 PUSH2 0x90B JUMP JUMPDEST DUP2 EQ PUSH2 0x931 JUMPI PUSH1 0x0 DUP1 REVERT JUMPDEST POP JUMP JUMPDEST PUSH1 0x0 DUP2 CALLDATALOAD SWAP1 POP PUSH2 0x943 DUP2 PUSH2 0x91D JUMP JUMPDEST SWAP3 SWAP2 POP POP JUMP JUMPDEST PUSH1 0x0 PUSH1 0x20 DUP3 DUP5 SUB SLT ISZERO PUSH2 0x95F JUMPI PUSH2 0x95E PUSH2 0x87E JUMP JUMPDEST JUMPDEST PUSH1 0x0 PUSH2 0x96D DUP5 DUP3 DUP6 ADD PUSH2 0x934 JUMP JUMPDEST SWAP2 POP POP SWAP3 SWAP2 POP POP JUMP JUMPDEST PUSH1 0x0 DUP2 ISZERO ISZERO SWAP1 POP SWAP2 SWAP1 POP JUMP JUMPDEST PUSH2 0x98B DUP2 PUSH2 0x976 JUMP JUMPDEST DUP3 MSTORE POP POP JUMP JUMPDEST PUSH1 0x0 PUSH1 0x20 DUP3 ADD SWAP1 POP PUSH2 0x9A6 PUSH1 0x0 DUP4 ADD DUP5 PUSH2 0x982 JUMP JUMPDEST SWAP3 SWAP2 POP POP JUMP JUMPDEST PUSH2 0x9B5 DUP2 PUSH2 0x888 JUMP JUMPDEST DUP3 MSTORE POP POP JUMP JUMPDEST PUSH1 0x0 PUSH1 0x20 DUP3 ADD SWAP1 POP PUSH2 0x9D0 PUSH1 0x0 DUP4 ADD DUP5 PUSH2 0x9AC JUMP JUMPDEST SWAP3 SWAP2 POP POP JUMP JUMPDEST PUSH2 0x9DF DUP2 PUSH2 0x90B JUMP JUMPDEST DUP3 MSTORE POP POP JUMP JUMPDEST PUSH1 0x0 PUSH1 0x20 DUP3 ADD SWAP1 POP PUSH2 0x9FA PUSH1 0x0 DUP4 ADD DUP5 PUSH2 0x9D6 JUMP JUMPDEST SWAP3 SWAP2 POP POP JUMP JUMPDEST PUSH1 0x0 DUP2 MLOAD SWAP1 POP SWAP2 SWAP1 POP JUMP JUMPDEST PUSH1 0x0 DUP3 DUP3 MSTORE PUSH1 0x20 DUP3 ADD SWAP1 POP SWAP3 SWAP2 POP POP JUMP JUMPDEST PUSH1 0x0 JUMPDEST DUP4 DUP2 LT ISZERO PUSH2 0xA3A JUMPI DUP1 DUP3 ADD MLOAD DUP2 DUP5 ADD MSTORE PUSH1 0x20 DUP2 ADD SWAP1 POP PUSH2 0xA1F JUMP JUMPDEST DUP4 DUP2 GT ISZERO PUSH2 0xA49 JUMPI PUSH1 0x0 DUP5 DUP5 ADD MSTORE JUMPDEST POP POP POP POP JUMP JUMPDEST PUSH1 0x0 PUSH1 0x1F NOT PUSH1 0x1F DUP4 ADD AND SWAP1 POP SWAP2 SWAP1 POP JUMP JUMPDEST PUSH1 0x0 PUSH2 0xA6B DUP3 PUSH2 0xA00 JUMP JUMPDEST PUSH2 0xA75 DUP2 DUP6 PUSH2 0xA0B JUMP JUMPDEST SWAP4 POP PUSH2 0xA85 DUP2 DUP6 PUSH1 0x20 DUP7 ADD PUSH2 0xA1C JUMP JUMPDEST PUSH2 0xA8E DUP2 PUSH2 0xA4F JUMP JUMPDEST DUP5 ADD SWAP2 POP POP SWAP3 SWAP2 POP POP JUMP JUMPDEST PUSH1 0x0 PUSH2 0xAA4 DUP3 PUSH2 0x8EB JUMP JUMPDEST SWAP1 POP SWAP2 SWAP1 POP JUMP JUMPDEST PUSH2 0xAB4 DUP2 PUSH2 0xA99 JUMP JUMPDEST DUP3 MSTORE POP POP JUMP JUMPDEST PUSH1 0x0 PUSH1 0xA0 DUP3 ADD SWAP1 POP DUP2 DUP2 SUB PUSH1 0x0 DUP4 ADD MSTORE PUSH2 0xAD4 DUP2 DUP9 PUSH2 0xA60 JUMP JUMPDEST SWAP1 POP PUSH2 0xAE3 PUSH1 0x20 DUP4 ADD DUP8 PUSH2 0x9AC JUMP JUMPDEST PUSH2 0xAF0 PUSH1 0x40 DUP4 ADD DUP7 PUSH2 0xAAB JUMP JUMPDEST PUSH2 0xAFD PUSH1 0x60 DUP4 ADD DUP6 PUSH2 0x982 JUMP JUMPDEST PUSH2 0xB0A PUSH1 0x80 DUP4 ADD DUP5 PUSH2 0x9AC JUMP JUMPDEST SWAP7 SWAP6 POP POP POP POP POP POP JUMP JUMPDEST PUSH1 0x0 DUP1 REVERT JUMPDEST PUSH1 0x0 DUP1 REVERT JUMPDEST PUSH32 0x4E487B7100000000000000000000000000000000000000000000000000000000 PUSH1 0x0 MSTORE PUSH1 0x41 PUSH1 0x4 MSTORE PUSH1 0x24 PUSH1 0x0 REVERT JUMPDEST PUSH2 0xB56 DUP3 PUSH2 0xA4F JUMP JUMPDEST DUP2 ADD DUP2 DUP2 LT PUSH8 0xFFFFFFFFFFFFFFFF DUP3 GT OR ISZERO PUSH2 0xB75 JUMPI PUSH2 0xB74 PUSH2 0xB1E JUMP JUMPDEST JUMPDEST DUP1 PUSH1 0x40 MSTORE POP POP POP JUMP JUMPDEST PUSH1 0x0 PUSH2 0xB88 PUSH2 0x874 JUMP JUMPDEST SWAP1 POP PUSH2 0xB94 DUP3 DUP3 PUSH2 0xB4D JUMP JUMPDEST SWAP2 SWAP1 POP JUMP JUMPDEST PUSH1 0x0 PUSH8 0xFFFFFFFFFFFFFFFF DUP3 GT ISZERO PUSH2 0xBB4 JUMPI PUSH2 0xBB3 PUSH2 0xB1E JUMP JUMPDEST JUMPDEST PUSH2 0xBBD DUP3 PUSH2 0xA4F JUMP JUMPDEST SWAP1 POP PUSH1 0x20 DUP2 ADD SWAP1 POP SWAP2 SWAP1 POP JUMP JUMPDEST DUP3 DUP2 DUP4 CALLDATACOPY PUSH1 0x0 DUP4 DUP4 ADD MSTORE POP POP POP JUMP JUMPDEST PUSH1 0x0 PUSH2 0xBEC PUSH2 0xBE7 DUP5 PUSH2 0xB99 JUMP JUMPDEST PUSH2 0xB7E JUMP JUMPDEST SWAP1 POP DUP3 DUP2 MSTORE PUSH1 0x20 DUP2 ADD DUP5 DUP5 DUP5 ADD GT ISZERO PUSH2 0xC08 JUMPI PUSH2 0xC07 PUSH2 0xB19 JUMP JUMPDEST JUMPDEST PUSH2 0xC13 DUP5 DUP3 DUP6 PUSH2 0xBCA JUMP JUMPDEST POP SWAP4 SWAP3 POP POP POP JUMP JUMPDEST PUSH1 0x0 DUP3 PUSH1 0x1F DUP4 ADD SLT PUSH2 0xC30 JUMPI PUSH2 0xC2F PUSH2 0xB14 JUMP JUMPDEST JUMPDEST DUP2 CALLDATALOAD PUSH2 0xC40 DUP5 DUP3 PUSH1 0x20 DUP7 ADD PUSH2 0xBD9 JUMP JUMPDEST SWAP2 POP POP SWAP3 SWAP2 POP POP JUMP JUMPDEST PUSH2 0xC52 DUP2 PUSH2 0xA99 JUMP JUMPDEST DUP2 EQ PUSH2 0xC5D JUMPI PUSH1 0x0 DUP1 REVERT JUMPDEST POP JUMP JUMPDEST PUSH1 0x0 DUP2 CALLDATALOAD SWAP1 POP PUSH2 0xC6F DUP2 PUSH2 0xC49 JUMP JUMPDEST SWAP3 SWAP2 POP POP JUMP JUMPDEST PUSH1 0x0 DUP1 PUSH1 0x0 PUSH1 0x60 DUP5 DUP7 SUB SLT ISZERO PUSH2 0xC8E JUMPI PUSH2 0xC8D PUSH2 0x87E JUMP JUMPDEST JUMPDEST PUSH1 0x0 DUP5 ADD CALLDATALOAD PUSH8 0xFFFFFFFFFFFFFFFF DUP2 GT ISZERO PUSH2 0xCAC JUMPI PUSH2 0xCAB PUSH2 0x883 JUMP JUMPDEST JUMPDEST PUSH2 0xCB8 DUP7 DUP3 DUP8 ADD PUSH2 0xC1B JUMP JUMPDEST SWAP4 POP POP PUSH1 0x20 PUSH2 0xCC9 DUP7 DUP3 DUP8 ADD PUSH2 0x8A9 JUMP JUMPDEST SWAP3 POP POP PUSH1 0x40 PUSH2 0xCDA DUP7 DUP3 DUP8 ADD PUSH2 0xC60 JUMP JUMPDEST SWAP2 POP POP SWAP3 POP SWAP3 POP SWAP3 JUMP JUMPDEST PUSH32 0x4E487B7100000000000000000000000000000000000000000000000000000000 PUSH1 0x0 MSTORE PUSH1 0x32 PUSH1 0x4 MSTORE PUSH1 0x24 PUSH1 0x0 REVERT JUMPDEST PUSH32 0x4E487B7100000000000000000000000000000000000000000000000000000000 PUSH1 0x0 MSTORE PUSH1 0x12 PUSH1 0x4 MSTORE PUSH1 0x24 PUSH1 0x0 REVERT JUMPDEST PUSH32 0x4E487B7100000000000000000000000000000000000000000000000000000000 PUSH1 0x0 MSTORE PUSH1 0x11 PUSH1 0x4 MSTORE PUSH1 0x24 PUSH1 0x0 REVERT JUMPDEST PUSH1 0x0 PUSH2 0xD7C DUP3 PUSH2 0x888 JUMP JUMPDEST SWAP2 POP PUSH2 0xD87 DUP4 PUSH2 0x888 JUMP JUMPDEST SWAP3 POP DUP3 PUSH2 0xD97 JUMPI PUSH2 0xD96 PUSH2 0xD13 JUMP JUMPDEST JUMPDEST DUP3 DUP3 DIV SWAP1 POP SWAP3 SWAP2 POP POP JUMP JUMPDEST PUSH32 0x4E487B7100000000000000000000000000000000000000000000000000000000 PUSH1 0x0 MSTORE PUSH1 0x22 PUSH1 0x4 MSTORE PUSH1 0x24 PUSH1 0x0 REVERT JUMPDEST PUSH1 0x0 PUSH1 0x2 DUP3 DIV SWAP1 POP PUSH1 0x1 DUP3 AND DUP1 PUSH2 0xDE9 JUMPI PUSH1 0x7F DUP3 AND SWAP2 POP JUMPDEST PUSH1 0x20 DUP3 LT DUP2 EQ ISZERO PUSH2 0xDFD JUMPI PUSH2 0xDFC PUSH2 0xDA2 JUMP JUMPDEST JUMPDEST POP SWAP2 SWAP1 POP JUMP JUMPDEST PUSH1 0x0 PUSH2 0xE0E DUP3 PUSH2 0x888 JUMP JUMPDEST SWAP2 POP PUSH32 0xFFFFFFFFFFFFFFFFFFFFFFFFFFFFFFFFFFFFFFFFFFFFFFFFFFFFFFFFFFFFFFFF DUP3 EQ ISZERO PUSH2 0xE41 JUMPI PUSH2 0xE40 PUSH2 0xD42 JUMP JUMPDEST JUMPDEST PUSH1 0x1 DUP3 ADD SWAP1 POP SWAP2 SWAP1 POP JUMP INVALID LOG2 PUSH5 0x6970667358 0x22 SLT KECCAK256 SWAP2 DIFFICULTY 0xB2 STOP LOG2 LOG4 SSTORE DUP14 TIMESTAMP 0xC9 0xEF DUP3 RETURN PUSH16 0x91E6AEE465D4EF483B35B4D102F0429B 0xAA SWAP4 PUSH5 0x736F6C6343 STOP ADDMOD MULMOD STOP CALLER LOG2 PUSH5 0x6970667358 0x22 SLT KECCAK256 0x2F JUMPI ADDRESS 0x21 KECCAK256 PUSH2 0x5923 0x2E 0xB2 0x26 0xB2 0xBD PUSH1 0x6C CREATE2 0xCA 0xCA 0xB8 0xCB SWAP15 SWAP14 LT PUSH21 0x165BABF6B563733164736F6C634300080900330000 "},"gasEstimates":{"creation":{"codeDepositCost":"1038000","executionCost":"1080","totalCost":"1039080"},"external":{"createCampaign(uint256)":"infinite","deployedCampains(uint256)":"4956","getDeployedCampaigns()":"infinite"}},"methodIdentifiers":{"createCampaign(uint256)":"a3303a75","deployedCampains(uint256)":"4af9edfe","getDeployedCampaigns()":"4acb9d4f"}},"storageLayout":{"storage":[{"astId":4,"contract":"Campaign.sol:CampaignFactory","label":"deployedCampains","offset":0,"slot":"0","type":"t_array(t_address)dyn_storage"}],"types":{"t_address":{"encoding":"inplace","label":"address","numberOfBytes":"20"},"t_array(t_address)dyn_storage":{"base":"t_address","encoding":"dynamic_array","label":"address[]","numberOfBytes":"32"}}},"userdoc":{"kind":"user","methods":{},"version":1}}